:100000000C9495070C94BD070C94BD070C94BD0788
:100010000C94BD070C94BD070C94BD070C94BD0750
:100020000C94BD070C94BD070C949D120C940C13FA
:100030000C94BD070C94BD070C94BD070C94BD0730
:100040000C94BD070C94BD070C94BD070C94BD0720
:100050000C94BD070C94BD070C94BD070C9453126F
:100060000C94BD070C94BD070C94BD070C94BD0700
:100070000C94BD070C94BD070C94BD070C94BD07F0
:100080000C943E150C94BD070C94BD070C94BD0751
:100090000C94BD070C94BD070C94BD070C94BD07D0
:1000A0000C94BD070C94BD070C94BD0705A84CCD5E
:1000B000B2D44EB93836A9020C50B9918688083CA2
:1000C000A6AAAA2ABE000000803F08080098E83CC3
:1000D000FC8E000000000000003E5B4F5B3E3E6B6C
:1000E0004F6B3E1C3E7C3E1C183C7E3C181C577DD2
:1000F000571C1C5E7F5E1C00183C1800FFE7C3E71E
:10010000FF0018241800FFE7DBE7FF30483A060E2F
:100110002629792926407F050507407F05253F5A76
:100120003CE73C5A7F3E1C1C08081C1C3E7F1422E6
:100130007F22145F5F005F5F06097F017F00668991
:10014000956A606060606094A2FFA29408047E04D7
:100150000810207E201008082A1C08081C2A0808FD
:100160001E101010100C1E0C1E0C30383E383006BD
:100170000E3E0E06000000000000005F00000007B9
:10018000000700147F147F14242A7F2A12231308E7
:10019000646236495620500008070300001C2241C3
:1001A000000041221C002A1C7F1C2A08083E080867
:1001B0000080703000080808080800006060002017
:1001C000100804023E5149453E00427F40007249FA
:1001D0004949462141494D331814127F102745459E
:1001E00045393C4A494931412111090736494949B4
:1001F00036464949291E0000140000004034000022
:10020000000814224114141414140041221408028A
:10021000015909063E415D594E7C1211127C7F49FD
:100220004949363E414141227F4141413E7F494952
:1002300049417F090909013E414151737F0808087E
:100240007F00417F41002040413F017F081422414F
:100250007F404040407F021C027F7F0408107F3EA9
:100260004141413E7F090909063E4151215E7F0916
:10027000192946264949493203017F01033F40407D
:10028000403F1F2040201F3F4038403F6314081468
:100290006303047804036159494D43007F414141A0
:1002A0000204081020004141417F04020102044081
:1002B00040404040000307080020545478407F2805
:1002C0004444383844444428384444287F385454FB
:1002D000541800087E090218A4A49C787F0804041E
:1002E0007800447D40002040403D007F10284400BD
:1002F00000417F40007C047804787C08040478384E
:1003000044444438FC1824241818242418FC7C087D
:10031000040408485454542404043F44243C4040FA
:10032000207C1C2040201C3C4030403C44281028AD
:10033000444C9090907C4464544C440008364100F6
:100340000000770000004136080002010204023C70
:100350002623263C1EA1A161123A4040207A38543F
:1003600054555921555579412154547841215554BA
:10037000784020545579400C1E527212395555550B
:1003800059395454545939555454580000457C41F6
:100390000002457D420001457C40F0292429F0F00F
:1003A000282528F07C545545002054547C547C0A60
:1003B000097F4932494949323248484832324A482D
:1003C00048303A4141217A3A42402078009DA0A02D
:1003D0007D39444444393D4040403D3C24FF242481
:1003E000487E4943662B2FFC2F2BFF0929F620C09E
:1003F000887E090320545479410000447D413048EF
:10040000484A32384040227A007A0A0A727D0D1931
:10041000317D2629292F28262929292630484D4093
:1004200020380808080808080808382F10C8ACBA8F
:100430002F102834FA00007B000008142A1422220E
:10044000142A14089500220095AA005500AAAA555E
:10045000AA55AA000000FF00101010FF0014141489
:10046000FF001010FF00FF1010F010F0141414FC27
:10047000001414F700FF0000FF00FF1414F404FC44
:10048000141417101F10101F101F1414141F001025
:100490001010F0000000001F101010101F1010109E
:1004A00010F010000000FF101010101010101010AD
:1004B000FF10000000FF140000FF00FF00001F10ED
:1004C000170000FC04F414141710171414F404F4A7
:1004D0000000FF00F714141414141414F700F71498
:1004E0001414171410101F101F141414F4141010E7
:1004F000F010F000001F101F0000001F140000008B
:10050000FC140000F010F01010FF10FF141414FF82
:10051000141010101F00000000F010FFFFFFFFFF7D
:10052000F0F0F0F0F0FFFFFF0000000000FFFF0F11
:100530000F0F0F0F38444438447C2A2A3E147E02A1
:10054000020606027E027E02635549416338444436
:100550003C04407E201E2006027E020299A5E7A5EB
:10056000991C2A492A1C4C7201724C304A4D4D305C
:100570003048784830BC625A463D3E494949007E81
:100580000101017E2A2A2A2A2A44445F4444405118
:100590004A444040444A51400000FF0103E080FFCC
:1005A000000008086B6B083612362436060F090F58
:1005B00006000018180000001010003040FF010174
:1005C000001F01011E00191D1712003C3C3C3C009D
:1005D00000000000080B00020202000009040000F5
:1005E000010202000005240010010524010101049C
:1005F00024020605240600010705810310004009B6
:10060000040100020A000000070502024000000782
:100610000583024000000403090412010002EF02F6
:1006200001404123368000010102030141726475DB
:10063000696E6F204C4C430041726475696E6F2087
:100640004C656F6E6172646F00F0F89C8E878387D3
:100650008E9CF8F00000FEFF0303030303070EFC6B
:10066000F80000FEFF0303030303070EFCF800007D
:10067000FFFF00000000000000FFFF0000FEFF83FE
:1006800083838383C7EE7C380000F8FC0E070303E6
:1006900003070EFCF800003F7FE0C08080C0E07FD1
:1006A0003FFFFF01010101010101FFFF0000FFFF0A
:1006B0000C0C0C0C1C3E77E3C100007FFFC0C0C0D7
:1006C000C0C0E0703F1F00001F3F70E0C0C0C0E02E
:1006D000703F1F00007FFFC1C1C1C1C1E3773E1C55
:1006E00000001F3F70E0C0C0C0E0703F1F0000006E
:1006F000000001FFFF01000000D5F08D14A1C881AA
:10070000CFD9F1AF2000DC00E8030000FA00B80107
:10071000F4017003D007008008080080D0F0FEFCD0
:1007200020008040000000000000000000000000E9
:1007300000000000000000000000000000000000B9
:1007400000000000000000000000000000000000A9
:100750000000000000000000000000000000000099
:100760000000000000000000000000000000000089
:100770000000000000000000000000000000000079
:100780000060D028140A0D06071811E2E478000072
:100790000000000000000000000000000000000059
:1007A0000000000000000000000000000000000049
:1007B0000000000000000000000000000000000039
:1007C0000000000000000000000000000000000029
:1007D0000000000000000000000000000000000019
:1007E0000000000000000000000000000000000009
:1007F00000000000000000000000E01010088884E5
:1008000084FA0F00001E323218000081FF8F0408A6
:10081000081010F0000000000000000000000000C0
:1008200000000000000000000000000000000000C8
:1008300000000000000000000000000000000000B8
:1008400000000000000000000000000000000000A8
:100850000000000000000000000000000000000098
:100860000000000000000000000000000000000088
:100870000000000000000000101F080E72C30100FD
:10088000000000E03010F0101030E0000000010126
:10089000E1FA3E0C0F000000000000000000000024
:1008A0000000000000000000000000000000000048
:1008B000000000000080C078C0A0300000C02020F0
:1008C00060C000E0301010E00000000000000000F8
:1008D0000000000000000000000000000000000018
:1008E0000000000000000000000000808080C04088
:1008F000C0C0602070D0981810E00434E683BEE0D9
:10090000808080834678417E407E41404040404028
:100910007FFF80808084C4FC8484F8180800809065
:10092000702020A080808080808080808080C04077
:100930004020202020202020201F1010101F1010E9
:10094000080F080F08080007040404F0FC0E020258
:10095000021010A020204040404040404040404015
:10096000404040404040404000602120101FC848A7
:100970000407040602020301010101010000000056
:100980000000000000000000000000000000000067
:10099000000000000000000000000101010103024E
:1009A0000206070400000000000000000000000034
:1009B0000000000000000000000000000000000037
:1009C0000000000000000000000000010307840890
:1009D0000000000F0402C264D800001C12120E04B2
:1009E00018000404879E8202000E1112120C01905E
:1009F000161D0900000000000000000000000000BB
:100A000000000000000000000000000000000000E6
:100A100000000000000000000000000000000000D6
:100A20000000000000000000041CFCFCF0F0F0F0EE
:100A3000307090103060C0800000000000000000A6
:100A40000000000000000000000080601C030103A3
:100A50000E38E080E07F01000003063860C000002F
:100A60000000007FC0000187FC1830C00000000FAC
:100A70007CC40408F8800E1261C1800000F20702F5
:100A8000000080800000000000E0C02010181870F6
:100A9000C000000000000000000000000000000096
:100AA00000000000000000000000010103030FFF30
:100AB000C2C2C3C3C1C1C1C1FE80000000000000AA
:100AC0000000000000000000020100000000000023
:100AD0000000000103000000000000000001000011
:100AE0000000000000010101000000000100000002
:100AF000000300000007000008080700003F000096
:100B00001E618080611E0000003F010000000000A7
:100B1000031E200000000000000000000000000094
:100B20000000000080400000000000000000000005
:100B300000E0F038080000000000000000000000A5
:100B400000000000000000000000000000000000A5
:100B50000000000000000000000000000000000095
:100B60000000000000000000000000000000000085
:100B70000000000000000000000000000000000075
:100B800000000060D028140A0D06071811E2E4786E
:100B90000000000000000000000000000000000055
:100BA0000000000000000000000000000000000045
:100BB0000003070E08000000000000000000000015
:100BC0000000000000000000000000000000000025
:100BD0000000000000000000000000000000000015
:100BE0000000000000000000000000000000000005
:100BF000000000000000000000000000E0101008ED
:100C0000888484FA0F00001E323218000081FF8FA2
:100C10000408081010F000000000000000000000B0
:100C200000000000000000000000000000000000C4
:100C300000000000000000000000000000000000B4
:100C400000000000000000000000000000000000A4
:100C50000000000000000000000000000000000094
:100C60000000000000000000000000000000000084
:100C700000000000000000000000101F080E72C3FA
:100C80000100000000E03010F0101030E000000023
:100C90000101E1FA3E0C0F0000000000000000001E
:100CA0000000000000000000000000000000000044
:100CB0000000000000000080C078C0A0300000C02C
:100CC000202060C000E0301010E0000000F01010A4
:100CD000F000000000000000000000000000000024
:100CE0000000000000000000000000000080808084
:100CF000C040C0C0602070D0981810E00434E68373
:100D0000BEE0808080834678417E407E4140404006
:100D100040407FFF80808084C4FC8484F8180800F1
:100D20008090702020A08080808080808080808063
:100D3000C0404020202020202020201F1010101F05
:100D40001010080F080F0808000704040704040720
:100D500008080810102020204040404040404040FB
:100D60004040404040404040404000602120101F33
:100D70000808040704060202030101010101000042
:100D80000000000000000000000000000000000063
:100D9000000000000000000000000000010101014F
:100DA000030202060704000000000000000000002B
:100DB0000000000000000000000000000000000033
:100DC0000000000000000000000000000000000023
:100DD0000000000000000000000000000000000013
:100DE0000000000000000000000000000000000003
:100DF00000000000000000000000000000000000F3
:100E000000000000000000000000000000000000E2
:100E100000000000000000000000000000000000D2
:100E200000000000000000000000000000000000C2
:100E300000000000000000000000000000000000B2
:100E400000000000000000000000000000000000A2
:100E50000000000000000000000000000000000092
:100E60000000000000000000000000000000000082
:100E70000000000000000000000000000000000072
:100E80000000000000000000000000000000000062
:100E90000000000000000000000000000000000052
:100EA0000000000000000000000000000000000042
:100EB0000000000000000000000000000000000032
:100EC0000000000000000000000000000000000022
:100ED0000000000000000000000000000000000012
:100EE0000000000000000000000000000000000002
:100EF00000000000000000000000000000000000F2
:100F000000000000000000000000000000000000E1
:100F100000000000000000000000000000000000D1
:100F2000000000000000D215F41B11241FBECFEFFB
:100F3000DAE0DEBFCDBF12E0A0E0B1E0E2E5F1E42F
:100F400002C005900D92AC30B107D9F726E0ACE0B5
:100F5000B2E001C01D92AB3BB207E1F717E0C4E974
:100F6000D7E004C02197FE010E949620C339D10723
:100F7000C9F70E9409160C949C200C9400008091E3
:100F80001D0208954F925F927F928F929F92AF922F
:100F9000BF92CF92DF92EF92FF920F931F93CF9366
:100FA000DF939C014115510509F4ADC0FA01C491CC
:100FB0003196E491AC2FB0E08D01080F191F101687
:100FC00011060CF0A0C0803891050CF09CC0CB013C
:100FD0008E0F911D181619060CF095C0603471051E
:100FE0000CF091C0F62FF7709F2ECB0177FD07967E
:100FF000F3E095958795FA95E1F7F82F77FF04C010
:10100000992011F0FFEFF80F66277727621B730B0B
:1010100037FD02C070E060E07C2E003811051CF046
:1010200000E8021B702E761AEF2E0F2E000CFF0820
:10103000DE2DD095FF3F0CF0D0E091E08E2F877031
:1010400009F490E0E695E695E6959E0FE90EF11C11
:1010500009E0E016F10414F098E09F1B1D2F1F0F0C
:1010600000E81003700111242E0D3F1D260F371FBD
:101070004E5F5F4FCD9F600D711D1124460F571FAE
:10108000E92C092C000CFF086FEF70E0092C02C05E
:10109000660F771F0A94E2F760957095872E9F0F71
:1010A000911789F1E901C55BDD4FD12CC12CC71423
:1010B00020F5FA01EC0DFD1DE491F0E02F010E2C5E
:1010C00002C0440C551C0A94E2F717FD04C0888145
:1010D000862384298883992059F017304CF45E01C7
:1010E00080E8A80EB11CF5018081882185298083C4
:1010F000FFEFCF1ADF0A2196DACF1F5F4A0F5B1F7F
:1011000020583F4FCDCFDF91CF911F910F91FF908E
:10111000EF90DF90CF90BF90AF909F908F907F9097
:101120005F904F900895EBE4F2E0A0E0B8E000801B
:101130000EBC8111012C1197A0FDFDCF0192B9F7D2
:101140000DB40895FC0180914A02882311F13FB744
:10115000F89482E08093E9002091F200822F90E0E1
:101160001816190614F481E090E0882339F02898C5
:1011700044E6409349024091F1004083222339F034
:101180002091F200211103C02BE62093E8003FBF1D
:1011900008958FEF9FEF08952FB7F89483E0809321
:1011A000E9009091E800892F807295FF04C090912A
:1011B000F20080E4891B2FBF0895809141028111C4
:1011C0000DC082E080933D0284E080933E02109245
:1011D000400210923F0281E0809341028DE392E051
:1011E00008953FB7F8948091390290913A02A09106
:1011F0003B02B0913C0226B5A89B05C02F3F19F0D9
:101200000196A11DB11D3FBFBA2FA92F982F882786
:10121000BC01CD01620F711D811D911D42E0660F61
:10122000771F881F991F4A95D1F708958F929F9233
:10123000AF92BF92CF92DF92EF92FF926B017C014F
:101240000E94F1084B015C01C114D104E104F104D6
:10125000B9F00E94F108681979098A099B09683E6A
:1012600073408105910580F321E0C21AD108E1089D
:10127000F10888EE880E83E0981EA11CB11CE4CF13
:10128000FF90EF90DF90CF90BF90AF909F908F90A6
:1012900008952FB7F89460913502709136028091CD
:1012A0003702909138022FBF089540911702509154
:1012B0001802209115023091160242175307B4F418
:1012C0009091E8009570E1F39091E80092FD19C0CB
:1012D0008093F100809117029091180201968F730C
:1012E0009927892B19F48EEF8093E80080911702DB
:1012F000909118020196909318028093170281E052
:10130000089580E00895DF92EF92FF920F931F936C
:10131000CF93DF93D82E8A01EB017B01E40EF51EFB
:10132000CE15DF0559F0D7FE12C0FE0184910E9450
:10133000550921968111F4CF0FEF1FEFC801DF91FE
:10134000CF911F910F91FF90EF90DF9008958881CA
:10135000EECF0F931F93CF93DF931F92CDB7DEB7DE
:1013600082E0898342E450E064ED75E080E80E9409
:1013700083090E94DD08DC0112960D911C91011574
:10138000110589F0D801ED91FC910280F381E02DE7
:10139000BE016F5F7F4FC801099597FD04C0F8013A
:1013A00000851185ECCF89810F90DF91CF911F913E
:1013B0000F910895615030F02091F100FC012083DD
:1013C0000196F8CF289884E6809349020895AF9259
:1013D000BF92CF92DF92EF92FF920F931F93CF9322
:1013E000DF936C017B018B01040F151FEB015E0184
:1013F000AE18BF08C017D10759F06991D601ED9119
:10140000FC910190F081E02DC6010995892B79F7B7
:10141000C501DF91CF911F910F91FF90EF90DF9069
:10142000CF90BF90AF9008958F929F92AF92BF924E
:10143000CF92DF92EF92FF920F931F93CF93DF93A0
:101440006C017B018A0180910B01882309F45CC047
:1014500080914A02882309F457C080911B0280FFC3
:1014600005C08091E00082608093E000E801B12C2B
:101470008AEFA82E93E0892E2AE3922E209711F46A
:10148000BB20D9F10E94CC0881110AC0AA94AA20DD
:10149000D9F161E070E080E090E00E941609EECFA3
:1014A0008C171D0611F00CF08C2F9FB7F8948092CA
:1014B000E9002091E80025FD02C09FBFDFCF282F63
:1014C00030E0C21BD30BF701815020F041914093D3
:1014D000F100FACFE20EF31EBB2021F09092E8005B
:1014E000B12CEBCF8091E80085FDE7CF9092E8002A
:1014F000BB24B394209709F3F3CF5D9884E68093DF
:101500001A02101611063CF081E090E0F601938378
:10151000828310E000E0C801DF91CF911F910F910D
:10152000FF90EF90DF90CF90BF90AF909F908F9003
:101530000895CF93DF931F92CDB7DEB76983DC01A7
:10154000ED91FC910280F381E02D41E050E0BE017D
:101550006F5F7F4F09950F90DF91CF91089583E0E2
:101560008093E9008091F200882319F08AE3809348
:10157000E80008950E94CC0890E00895CF93DF938F
:101580001F92CDB7DEB7FC018485958597FD08C015
:101590002FEF3FEF358724870F90DF91CF9108958C
:1015A000CE0101960E94A208019719F4898190E06A
:1015B000F3CF8FEF9FEFF0CF0F931F93CF93DF9376
:1015C0001F92CDB7DEB78C01FC018485958597FF0E
:1015D0000BC0CE0101960E94A208019771F4898187
:1015E00090E0F80195878487F801848595850F90B0
:1015F000DF91CF911F910F9108958FEF9FEFF1CF62
:10160000FC018485958597FD0BC09FB7F89482E017
:101610008093E9008091F2009FBF90E001960895C9
:101620009FB7F89482E08093E9008091F2009FBF19
:1016300090E0089520912602E0912402F091250285
:10164000CF0102969093250280932402222319F061
:10165000859194910895808191810895CF92DF9230
:10166000EF92FF92CF93DF930E941A0B811520E82F
:10167000920791F4809171008D7F80937100109298
:1016800091004698479810920E02DF91CF91FF90FB
:10169000EF90DF90CF90089521E020930E028130EB
:1016A00020E8920751F480912202909123029093B6
:1016B0002502809324020E941A0B97FD05C02091F9
:1016C0000D02222309F454C020910C02211150C0B4
:1016D00021E020930F02EC01DF77209709F04BC047
:1016E00081E08093100246983FE9C32E3FE0D32E5D
:1016F000E12CF12CCAEFD0E0E091A906F091AA0606
:101700000995811103C081E08093100280910F023E
:10171000882329F080911002882309F43FC047985C
:101720000E941A0B0097F1F19C01DE010E942B1E12
:10173000DC01CB0129E0B595A795979587952A956A
:10174000D1F7109290002AE020939100D092990056
:10175000C09298008093110290931202A0931302FA
:10176000B0931402809171008260809371008DCFDC
:1017700010920F02B0CF9E0150E040E060E472E4AE
:101780008FE090E00E94D71D69017A0181E0C81ABC
:10179000D108E108F10810921002AECF4699BFCFF0
:1017A000479ABECF8FEF9FEFDC01CBCF9C01E1E7E3
:1017B000F0E090819D7F908310922602EBE9F6E0A5
:1017C000F0932502E0932402F0932302E093220297
:1017D000318320837383628380E090E895838483E0
:1017E0000C942E0B2D9A0895BC0190E080E00C948F
:1017F00016098FB18095807F669B88601C9B8460F2
:10180000089580E0EBE4F2E081118FEF00248193F2
:101810008193819381930394D1F710922F021092B8
:101820002E0210923102109230020895CF93C82FE9
:101830000E94F90B982F9C2381E09C1380E0CF91AC
:10184000089580E00C94930880389105B8F46034D2
:101850007105A0F420E191E061FD94E060FD990F35
:1018600062FD9295687F269FD0011124A80FA55B89
:10187000BD4F8C9140FF03C0892B8C9308959095A8
:101880008923FBCF2F923F924F925F926F927F926C
:101890008F929F92AF92BF92CF92DF92EF92FF9280
:1018A0000F931F93CF93DF93EC018B017A016901B2
:1018B000C61AD70AD7FE03C0D194C194D1084701F4
:1018C0008C1A9D0A97FE03C09194819491088C1400
:1018D0009D0454F49E2D8F2D7901292F382F9C2F94
:1018E0008D2FE801092F182FEC16FD0654F4902FC8
:1018F000812F8901292F382F9C2F8D2FE701E92E69
:10190000F82E17012C1A3D0A2901401A510A57FED8
:1019100003C0519441945108310137FE03C08FEF49
:10192000681A780A759467948FEF021713070CF4FE
:1019300081E0A82E880FBB08EC16FD06A4F041E05C
:10194000BE01C8018C149D0414F0B801CE010E94A0
:10195000240C6418750877FE04C00A0D1B1D620C68
:10196000731C2196E9CFDF91CF911F910F91FF90CA
:10197000EF90DF90CF90BF90AF909F908F907F902F
:101980006F905F904F903F902F9008958F929F920D
:10199000AF92BF92CF92DF92EF92FF920F931F937D
:1019A000CF93DF936D3089F0C0902E02D0902F023C
:1019B0006A30D1F4109231021092300288E0C80EE1
:1019C000D11CD0922F02C0922E0281E090E0DF91D4
:1019D000CF911F910F91FF90EF90DF90CF90BF902C
:1019E000AF909F908F900895009130021091310236
:1019F000E5E06E9FE0011124CC52DF4F4801F12C4D
:101A0000F5E0E12CFF1629F0CE010196FE01E490ED
:101A1000EC01B12CA12C4E2D4170B6016A0D7B1D3D
:101A2000C4010E94240CE694FFEFAF1ABF0A88E0BD
:101A3000A816B10481F7F394EFEF8E1A9E0AF6E030
:101A4000FF12DECF0A5F1F4F109331020093300266
:101A5000BCCF0895FC0180819181892B59F0A6812A
:101A6000B78112968D919C91009721F09783868380
:101A700081E0089580E00895DC012D913C9111975B
:101A8000232B41F01696ED91FC9181E02281338168
:101A9000232B09F480E00895089582E090E00895F2
:101AA00060E070E0CB01089580E00895FC0184853A
:101AB00095850895CF92DF92EF92FF921F93CF9377
:101AC000DF93FC01158D112349F1EC010E944909B6
:101AD000AB01BC018F859889A989BA89CB88DC883C
:101AE000ED88FE888C0D9D1DAE1DBF1D84179507CA
:101AF000A607B707A8F480912C0290912D020197B8
:101B000090932D0280932C021D8E812FDF91CF9117
:101B10001F91FF90EF90DF90CF90089511E0F5CFE7
:101B200010E0F3CF83E090E0089508950F931F93A2
:101B3000FC016085718582859385048115812681EC
:101B40003781600F711F821F931F1F910F9108959E
:101B500085E090E008950F931F93CF93DF93EC01FE
:101B60000E944909AB01BC0188859985AA85BB857E
:101B70000C811D812E813F81800F911FA21FB31FF9
:101B800084179507A607B70740F41092270281E053
:101B9000DF91CF911F910F91089580E0F9CF0895C3
:101BA000FC01828193810895089584E090E0089576
:101BB000FC01208531854681578164817581828150
:101BC00093810C94420C089508950F931F93CF9323
:101BD000DF93EC010E9449098B019C014F855889D4
:101BE00069897A898B899C89AD89BE89840F951F03
:101BF000A61FB71F41E080179107A207B30708F09F
:101C000040E0842FDF91CF911F910F910895FC0147
:101C1000858D811103C0CF010C94E50D0895DC0181
:101C2000ED91FC910288F389E02D0994DC015E9628
:101C30002D913C915F972F5F3F4F5F963C932E9382
:101C40005E972430310534F4ED91FC910488F589D8
:101C5000E02D0994FC01178E168E0C940F0EFC01DA
:101C6000848595850895FC01438D548D648175812B
:101C7000828193810C94C207FC012285338588E61A
:101C800091E0821B930B938782872A3531050CF4F0
:101C900008950895FC012285338584EB90E0243B70
:101CA000310514F08CE192E0821B930B93878287BD
:101CB000089581E090E0089590E080E008958F928B
:101CC0009F92AF92BF920F931F93CF93DF93CDB7A5
:101CD000DEB7A1970FB6F894DEBF0FBECDBF19A235
:101CE000423008F44AE08E010F5D1F4F842E912C84
:101CF000B12CA12CA50194010E94091EE62FB90167
:101D0000CA01EA3044F5E05DD801EE938D01232B42
:101D1000242B252B79F790E080E0109769F0FD01E6
:101D200001900020E9F73197AF014A1B5B0BBD0121
:101D300083EB96E00E94E709A1960FB6F894DEBF08
:101D40000FBECDBFDF91CF911F910F91BF90AF908C
:101D50009F908F900895E95CD7CFCF92DF92EF925A
:101D6000FF92CF93DF936C01990FEE08FF08F7FE07
:101D700019C06DE283EB96E00E94C60CEC01662769
:101D80007727CB016C197D098E099F094AE00E94D3
:101D90005F0E8C0F9D1FDF91CF91FF90EF90DF9032
:101DA000CF9008954AE0C701B601DF91CF91FF902F
:101DB000EF90DF90CF900C945F0EFC01019000201B
:101DC000E9F73197AF01481B590BBC0183EB96E053
:101DD0000C94E709CF93DF93FC0120813181232B01
:101DE000A1F0EC018A819B81009749F0EA81FB8197
:101DF000228133813B832A830E94941CF3CF1D826E
:101E00001C821F821E821B821A82DF91CF9108954D
:101E1000CF93DF938091AB069091AC06009709F4C5
:101E20004EC001979093AC068093AB06E091B1064B
:101E3000F091B206C481D581209721F022813381AF
:101E40003B832A83A281B381109721F01596DC93FE
:101E5000CE931497892B89F41092B0061092AF0696
:101E60001092B2061092B1061092AE061092AD0614
:101E7000CF01DF91CF910C94941C8091AD0690918D
:101E8000AE06E817F90749F4B093AE06A093AD0685
:101E9000B093B206A093B106EBCF848195812091D7
:101EA000AF063091B006E217F30721F49093B00625
:101EB0008093AF069093B2068093B106D9CFDF919D
:101EC000CF910895CF93DF932091AB063091AC066C
:101ED000232BC1F0EC018091AD069091AE0690935A
:101EE000B2068093B106E091B106F091B20680810E
:101EF0009181C817D90749F08BEA96E00E942A0D14
:101F00008111F1CFDF91CF910895DF91CF910C94A2
:101F1000080F0C94941C0C94941C0C94941C0C941A
:101F2000941C0C94941C0F931F93CF93DF93EC019C
:101F30008B0186E090E00E94F81BFC01AC81BD8122
:101F40001183008313821282B583A48388819981CF
:101F5000009771F4FB83EA83FD83EC83FF83EE83B8
:101F6000019699838883DF91CF911F910F910895F6
:101F70001396FC93EE931297FD83EC83F1CF0C94B0
:101F8000C11D2F923F924F925F926F927F928F92DC
:101F90009F92AF92BF92CF92DF92EF92FF920F93F8
:101FA0001F93CF93DF9300D01F92CDB7DEB78C0184
:101FB00080E20E94160C882341F0F801828193810F
:101FC000019797FD6DC19383828380E40E94160C74
:101FD000882351F0F8018281938101968937910518
:101FE0000CF061C193838283F801648175814AECAE
:101FF00050E0828193810E94C20784E00E94160C07
:10200000882309F48EC08091270281118AC0209113
:10201000B7063091B806CE010196821B930B853628
:1020200091050CF47EC064E670E08CEB92E00E94B7
:10203000D60BC0902A02D0902B02FFEFCF1ADF0AF6
:10204000D0922B02C0922A02F80182889388A48839
:10205000B588608871888EE190E00E94F81B7C0151
:10206000FC0193828282B582A48297828682B186A5
:10207000A0867386628685E691E091838083D5860B
:10208000C486BB24B394B6861786108A118A128A36
:1020900088E893E1A0E0B0E0838B948BA58BB68BAE
:1020A00083E090E0A0E0B0E0878B908FA18FB28FAB
:1020B000148E138E0E944909F7016787708B818BFC
:1020C000928B80E391E091838083158EB7018BEA38
:1020D00096E00E94930F8CE090E00E94F81B7C0138
:1020E0008EE191E0F70191838083D382C28288ECF4
:1020F00090E0A0E0B0E084839583A683B783108648
:10210000118612861386B09227020E944909F701B0
:102110006087718782879387B7018BEA96E00E9478
:10212000930FF801828193819C012B5F3F4F3B838A
:102130002A832480358080E10E94160C882349F090
:10214000F80186859785181619061CF40497978759
:10215000868780E80E94160C882349F0F80186855E
:102160009785843B91051CF4049697878687F80130
:102170008685978564EB70E0681B790B718B608BAB
:10218000072E000C880B990B0E94E41E25E33AEF02
:102190004EE85CE30E94B41F6B017C010E94A71E05
:1021A0002B013C012A813B81B901330F880B990B2C
:1021B0000E94E41E4B015C0120E030E040E850E466
:1021C000C301B2010E94B41F9B01AC01C501B4015F
:1021D0000E943B1E4B015C0120E030E0A9010E94FF
:1021E000AF1F20E030E040E05FE387FD5FC0C50146
:1021F000B4010E943B1E0E94AC1E5B01F801738B70
:10220000628BC701B6010E9421202B013C01B10164
:10221000032C000C880B990B0E94E41E6B017C01BF
:1022200020E030E040E850E4C301B2010E94B41F56
:102230009B01AC01C701B6010E943A1E6B017C01F3
:1022400020E030E0A9010E94AF1F20E030E040E034
:102250005FE387FD30C0C701B6010E943B1E0E94AC
:10226000AC1EF801758B648B9B01A501B1018A81BD
:102270009B810F900F900F90DF91CF911F910F9145
:10228000FF90EF90DF90CF90BF90AF909F908F9096
:102290007F906F905F904F903F902F900C94420CE6
:1022A00088E790E090CE138212829ECEC501B401E1
:1022B0000E943A1EA0CFC701B6010E943A1ECFCF9E
:1022C0004F925F926F927F928F929F92AF92BF9246
:1022D000CF92DF92EF92FF92CF93DF9300D000D0A6
:1022E00000D0CDB7DEB79E838D83DC0112968D9131
:1022F0009C9113978138910540F0ED91FC911197D5
:102300000684F785E02DCD010995ED81FE8184815C
:1023100095818134910548F00190F081E02D00888D
:10232000F189E02D8D819E810995AD81BE81579601
:102330006D917D918D919C915A970E94E21E6B0147
:102340007C01ED81FE8162857385072E000C880B70
:10235000990B0E94E41E25E33AEF4EE85CE30E94ED
:10236000B41F4B015C010E94A71E69837A838B8393
:102370009C83AD81BE8112966D917C91072E000CDD
:10238000880B990B0E94E41E2B013C0129813A81A4
:102390004B815C81C701B6010E94B41F9B01AC0157
:1023A000C301B2010E943B1E2B013C0120E030E042
:1023B000A9010E94AF1F20E030E040E05FE387FD0D
:1023C00068C0C301B2010E943B1E0E94AC1EED8199
:1023D000FE8177836683C501B4010E9421204B01F1
:1023E0005C01AD81BE8114966D917C91072E000C2D
:1023F000880B990B0E94E41E2B013C01A50194015E
:10240000C701B6010E94B41F9B01AC01C301B20118
:102410000E943A1E6B017C0120E030E0A9010E947D
:10242000AF1F20E030E040E05FE387FD37C0C70129
:10243000B6010E943B1E0E94AC1EED81FE81718799
:102440006087DF010190F081E02D0488F589E02D9F
:10245000CD010995ED81FE818681978193838283E9
:10246000808591859583848326960FB6F894DEBF88
:102470000FBECDBFDF91CF91FF90EF90DF90CF9057
:10248000BF90AF909F908F907F906F905F904F9094
:102490000895C301B2010E943A1E97CFC701B60149
:1024A0000E943A1EC8CF1F920F920FB60F921124AE
:1024B0002F933F938F939F93AF93BF938091350258
:1024C00090913602A0913702B091380230913402D7
:1024D00023E0230F2D3758F50196A11DB11D209340
:1024E00034028093350290933602A0933702B09362
:1024F00038028091390290913A02A0913B02B0914A
:102500003C020196A11DB11D8093390290933A02BD
:10251000A0933B02B0933C02BF91AF919F918F91EA
:102520003F912F910F900FBE0F901F90189526E8A6
:10253000230F0296A11DB11DD2CF1F920F920FB68D
:102540000F9211248F939F938091E1009091E1006D
:10255000937F9093E10083FF0FC01092E90091E018
:102560009093EB001092EC0092E39093ED001092A8
:102570004A0298E09093F00082FF22C093E090938B
:10258000E9009091F200992319F09AE39093E80002
:1025900090911A02992341F090911A0291509093D0
:1025A0001A02911101C05D9A90914902992341F05C
:1025B00090914902915090934902911101C0289A3B
:1025C00084FF18C08091E2008E7E81608093E200DB
:1025D0008091E1008F7E8093E10080911B028E7ECE
:1025E000806180931B029F918F910F900FBE0F907F
:1025F0001F90189580FFF7CF8091E2008E7E80615A
:102600008093E2008091E1008E7E8093E1008091D2
:102610001B028E7E8160E5CF1F920F920FB60F9244
:102620001124CF92DF92EF92FF920F931F932F937B
:102630003F934F935F936F937F938F939F93AF934A
:10264000BF93EF93FF93CF93DF93CDB7DEB76C9734
:10265000DEBFCDBF1092E9008091E80083FF25C066
:1026600068E0CE0145960E94DA0982EF8093E80087
:102670008D8987FF39C09091E80090FFFCCF982F9B
:10268000907609F034C19E894F89588D2F89F88C36
:10269000911131C0803861F580911C028093F10066
:1026A0001092F1008EEF8093E8006C960FB6F894CC
:1026B000DEBF0FBECDBFDF91CF91FF91EF91BF91F4
:1026C000AF919F918F917F916F915F914F913F91CA
:1026D0002F911F910F91FF90EF90DF90CF900F906F
:1026E0000FBE0F901F9018959EEF9093E800C7CFF4
:1026F0001092F100D5CF913059F48111D3CF4130F0
:10270000510581F680911C028D7F80931C02CACFF7
:10271000933049F48111C6CF4130510519F68091AB
:102720001C028260F2CF953041F48091E80080FF76
:10273000FCCF20682093E300B5CF963009F0A9C004
:102740000B8D1C8D22E01092E9001092180210925D
:102750001702F2122EC010921602109215020E9459
:10276000A9091F8299E09983FA8291E09E8390EAF9
:1027700098879AEF99872091170230911802275F66
:102780003F4F3C832B838D831092E90010921802F7
:1027900010921702109316020093150249E050E0C0
:1027A000BE016F5F7F4F80E00E9483090E94A909EC
:1027B00079CF10931602009315020E94DD08DC0108
:1027C00012960D911C910115110509F451C1D80102
:1027D000ED91FC910480F581E02DBE016B5E7F4F91
:1027E000C8010995009709F03EC1F80100851185DF
:1027F000EACFF3E0FF120EC08F89882309F440C0AE
:10280000823061F440E860E188E396E00E949F1521
:10281000811148CF81E28093EB0047CF813029F4CA
:1028200040E86BE08CE296E0F1CF833099F70E94AC
:10283000DD08DC011296ED90FC908E010F5F1F4FBA
:102840006801E114F10479F0D701ED91FC91068063
:10285000F781E02DB801C7010995080F111DF70197
:10286000E084F184EECFD8011C92F60101900020A3
:10287000E9F73197BF016C197D0940E0C601C6CF69
:1028800066E176E0FB01449150E080E80E94830914
:1028900009CF973009F4BECF983021F481E08093BE
:1028A000F10000CF993009F0FDCE837009F0B2CF6E
:1028B000E9E4F1E081E031E096E32191222371F037
:1028C0008093E9003093EB00DF0111972C91209366
:1028D000EC009093ED008F5F873079F78EE780935F
:1028E000EA001092EA008F8980934A02DBCE8B8D3A
:1028F0009C8D1092E900109218021092170290938A
:10290000160280931502898D811192C08E899D894E
:10291000913A49F4813209F07DCF47E050E064E01C
:1029200071E080E0B3CF913209F074CF833269F463
:102930008F89988DB0E0A0E0809300019093010111
:10294000A0930201B0930301ADCE803269F480916F
:10295000E80082FFFCCF67E084E091E00E94DA09A2
:102960008BEF8093E8009ECE823209F09BCE8F8958
:1029700080930B01EEEFFFE7859194918B3F9C4D87
:1029800051F1E0E0F8E08091040190910501A091FF
:102990000601B0910701803B9440A105B105F1F417
:1029A00080910B0180FD1AC0EE3F8AE0F80789F59F
:1029B00087E797E791838083809160008093190275
:1029C00088E19BE00FB6F894A895809360000FBE55
:1029D0009093600067CEEEEFFAE0D5CF80819181D1
:1029E0008737974709F05ECEA8958091600088618F
:1029F000809360008091190280936000EE3F2AE08E
:102A0000F20789F08091FE0A9091FF0A91838083FA
:102A100049CE808191818737980751F29093FF0AC0
:102A20008093FE0AC5CF1092FF0A1092FE0A3ACE9A
:102A30000E94DD08DC0112960D911C910115110513
:102A400009F4E8CED801ED91FC910190F081E02DE0
:102A5000BE016B5E7F4FC8010995811123CEF8013D
:102A600000851185EBCF181619060CF41BCED2CEBB
:102A7000F1E0FF12BECE6AE176E004CF1F920F9222
:102A80000FB60F9211242F933F934F935F936F9341
:102A90007F938F939F93AF93BF93EF93FF93809117
:102AA000110290911202A0911302B0911402892B8D
:102AB0008A2B8B2B09F440C08091100281110BC02E
:102AC00088B190E4892788B980910F02882319F092
:102AD00088B1805888B98091110290911202A0911A
:102AE0001302B0911402181619061A061B069CF45C
:102AF0008091110290911202A0911302B0911402E0
:102B00000197A109B1098093110290931202A09339
:102B10001302B0931402FF91EF91BF91AF919F9177
:102B20008F917F916F915F914F913F912F910F9076
:102B30000FBE0F901F9018950E942E0BECCFEF92B6
:102B4000FF920F931F93CF93DF93F82E192FE62E4A
:102B5000042F81E0860F880F0E94550983E00E94B0
:102B60005509CF2DD12FEC0EFD2EF11CCE15DF0512
:102B7000B9F007FF13C0FE0184910E945509182F78
:102B800080E00E945509812321968111EFCFDF91CA
:102B9000CF911F910F91FF90EF9008958881EDCF15
:102BA00081E0F5CFEBE4F6E01382128288EE93E049
:102BB000A0E0B0E084839583A683B7838DE991E09C
:102BC000918380838FEF9FEF95878487E3EBF6E017
:102BD000138212828FEA91E0918380838FEB97E0DA
:102BE0009093AA068093A90680E090E89093A806A7
:102BF0008093A70646983E9A47983F9AEBEAF6E0FC
:102C00001182108213821282158214821782168218
:102C10000895CF93DF93CDB7DEB72A970FB6F89418
:102C2000DEBF0FBECDBF789484B5826084BD84B50D
:102C3000816084BD85B5826085BD85B5816085BDB7
:102C400080916E00816080936E001092810080916F
:102C500081008260809381008091810081608093F7
:102C6000810080918000816080938000809191003C
:102C700082608093910080919100816080939100A7
:102C8000809190008160809390008091C100846069
:102C90008093C1008091C10082608093C1008091C7
:102CA000C10081608093C1008091C30081608093E6
:102CB000C3008091C00082608093C0008091C200F8
:102CC00081608093C20080917A00846080937A0052
:102CD00080917A00826080937A0080917A0081608E
:102CE00080937A0080917A00806880937A001092B5
:102CF0004A0210921C0210921B028091D700816040
:102D00008093D70080EA8093D80089B5806189BD1F
:102D100089B5826089BD09B400FEFDCF61E070E035
:102D200080E090E00E9416098091D8008F7C80613D
:102D30008093D8008091E000807F8093E0008091B4
:102D4000E1008E7E8093E1008DE08093E200559A51
:102D5000209A8FEF9FEF909358068093570681EC4F
:102D600080937C0085B1806F85B984B1877E84B9FA
:102D700084B1876E84B95E9A5F988AB1806D8AB992
:102D8000769A6E9881B3806F81BB899880B38D707D
:102D900080BB80E58CBD81E08DBD85E090E00E9428
:102DA000F40B5F9A85E090E00E94F40B5E985C98CB
:102DB000E9EFF6E086E097E024912EBD00000DB427
:102DC00007FEFDCF31968E179F07B1F75C9A81E819
:102DD00080936400809165008160809365000E940B
:102DE000210C80E80E94160C8823A9F05C9885EAE3
:102DF0008EBD00000DB407FEFDCF5C9A2E982F9873
:102E00002D988091640080628093640081E083BF8C
:102E1000889513BEFCCF84E00E94160C882309F429
:102E200048C02D9884E80E94160C8823E1F00E9487
:102E3000F20B88EC90E00E94F40B2F9882E090E077
:102E40000E94C11D8F3F29F06FEF82E090E00E9449
:102E5000C91D84EF91E00E94F40B2F9A84E80E9430
:102E6000160C8111FBCF84E10E94160C8823E1F03F
:102E70000E94F20B88EC90E00E94F40B2E9882E006
:102E800090E00E94C11D882329F060E082E090E07C
:102E90000E94C91D84EF91E00E94F40B2E9A84E1F8
:102EA0000E94160C8111FBCF88EC90E00E94F40B7D
:102EB000B2CF0E94F20B82E090E00E94BF0F882305
:102EC00009F477C03E9A3F9A81E080931D0281E029
:102ED00090E00E94BF0F282F2470522E81FF14C053
:102EE00021112E9801EF1FEF68E0A62EB12C7CE691
:102EF000E72EF12C80E40E94160C882309F45EC0B2
:102F00002E9A2F9A0E94F20B82E390E00E94F40B1B
:102F10000E94F90B8111F8CF84E180930C0100919C
:102F20002A0210912B020F5F1F4F10932B02009368
:102F30002A0286E190E00E94F81BFC0120E430E0C8
:102F40003383228388E390E09583848337832683C9
:102F5000918780871386128683E591E09183808331
:102F6000158704878AE590E097878687118A108AFB
:102F7000138A128A158A148AF0932902E093280290
:102F8000BF018BEA96E00E94930FAE014F5F5F4F47
:102F90001A010E94490980912002882309F4D8C0AF
:102FA0001092200280E090E0892B99F30E940000AB
:102FB000F0CF10921D023E983F9889CF552029F0FE
:102FC0000430110511F42E9A2F9881E00E94930885
:102FD000980117FF04C022273327201B310B2770CD
:102FE0003327C80117FD079653E0959587955A95A5
:102FF000E1F717FF05C00197A501421B530B9A018A
:10300000BC017695762F662777956795655B7D4F32
:10301000B0E0A0E01501221A330A8E3F5FEF95075A
:1030200009F446C048E550E0FD01EF55F94F4F0166
:103030003B01F0E86F0E711C8F3F9807C9F0F40157
:10304000E41BF50B44906701C41AD50AC60ED71EBF
:10305000E42DF0E0022E02C0EE0FFF1F0A94E2F70B
:10306000FA87E987F6014080F9854F2AF601408208
:1030700021153105C9F0F401E41BF50B44906701FB
:10308000C41AD50AC60CD71CE42DF0E0022C02C0ED
:10309000F595E7950A94E2F7FA87E987F60140800B
:1030A000F9854F2AF60140824150510909F0C4CFF9
:1030B0000196A85ABF4F60587F4FA03BB10509F059
:1030C000ACCF0E94210C8FE090E00E94F40B0F5FC8
:1030D0001F4F0931110509F00DCF552011F02F9A1E
:1030E0002D9880E991E00E94F40B0E94F20B81E0A0
:1030F00090E00E94BF0F80FF07CF8AE090E00E941F
:10310000BF0F9FEF980F9E3F08F0FECE22E330E006
:10311000309331022093300228E330E030932F02C5
:1031200020932E020BE010E0682F83EB96E00E94C4
:10313000C60CC8010E94BF0F0F5F1F4F0131110560
:1031400099F70E94210C88EE93E00E94F40BDCCEEC
:1031500080912102562F581B852F90910C015917F1
:1031600048F48F5F891708F01DCF81E083BF8895F1
:1031700013BE18CF81E080932002609321028091DA
:103180001E0290911F02019690931F0280931E02CF
:103190000E94010C80910F01882361F142E257E007
:1031A00070E060E090E080E00E94C207109231027F
:1031B0001092300210922F0210922E0287EB91E0B3
:1031C0000E94DD0E82EC91E00E94DD0E8EEC91E01B
:1031D0000E94DD0E0E94210C88E00E94160C8111D5
:1031E00007C064E670E080E090E00E941609F4CF2A
:1031F00010920F0144E25BE070E060E090E080E05C
:103200000E94C2078EE690E09093310280933002D4
:1032100010922F0210922E0280913202909133026E
:103220000E94AD0E8091AD069091AE069093B206CD
:103230008093B1068091AB069091AC06892B09F47E
:1032400048C0E091B106F091B20600811181D80129
:10325000ED91FC910680F781E02DC801099581115F
:1032600019C00E9449096B017C01D801ED91FC91C4
:103270000084F185E02DC80109956C157D058E054A
:103280009F0540F4D801ED91FC910480F581E02D7B
:10329000C8010995D801ED91FC910680F781E02DD8
:1032A000C8010995882309F4FFC08BEA96E00E94C3
:1032B0003C0D8111E9C0C8010E94620F0115110582
:1032C00041F0D801ED91FC910484F585E02DC80111
:1032D000099520910D0130910E012F5F3F4F3093E2
:1032E0000E0120930D0180912C0290912D028217E6
:1032F00093070CF09FC02091B7063091B806F101FA
:10330000E21BF30BE536F1050CF494C001969093A3
:103310002D0280932C0280912A0290912B0201961B
:1033200090932B0280932A020E94691D2EE630E0C2
:1033300040E050E00E94D71D2B013C01FAE04F0E07
:10334000511C611C711C0E94691D2AE030E040E0A4
:1033500050E00E94D71D6B017C012AE0C20ED11CF7
:10336000E11CF11C0E94691D4B015C0180E290E0B0
:103370000E94F81B8C0140912A0250912B025A871F
:103380004987DC0113965C924E9212971596DC9257
:10339000CE92149717965C924E9216971996DC92DD
:1033A000CE921897C501B40128E631E040E050E024
:1033B0000E94D71DF8017387628785E691E09183AB
:1033C000808349855A8555874487FF24F394F68680
:1033D0001786108A118A128A88E893E1A0E0B0E08B
:1033E000838B948BA58BB68B83E090E0A0E0B0E05C
:1033F000878B908FA18FB28F88E197E0948F838F16
:103400000E944909D8011F966D937D938D939C93DB
:10341000529781E891E011969C938E935D96FC9271
:103420005D975F961C921E925E97B8018BEA96E0BC
:103430000E94930F1A8219821C821B821E821D8297
:1034400018861F828091AD069091AE069093B206C9
:103450008093B1068091AB069091AC06892B81F1E7
:10346000E091B106F091B20660817181C1010E94C4
:10347000930F8BEA96E00E943C0D882309F18BEABA
:1034800096E00E942A0DECCFC8010E94620F011540
:10349000110509F4D6CED801ED91FC910484F5858F
:1034A000E02DC8010995CDCE8BEA96E00E943C0D37
:1034B000882309F40ECF8BEA96E00E942A0DC1CE34
:1034C0008B819C8198878F8389819A81892B09F4CC
:1034D0007CC155245394EF81F88500811181D80176
:1034E000ED91FC910280F381E02DC80109950497CC
:1034F00009F092C0F8016480758082809380809189
:10350000AD069091AE069093B2068093B10680917D
:10351000AB069091AC06892B09F47EC0E091B10610
:10352000F091B206E080F180D7011496CD90DC9046
:1035300015971296AD90BC901397ED91FC91028077
:10354000F381E02DC7010995039769F58A149B045F
:1035500054F1C5010896881699062CF56C147D0463
:1035600014F1C601089668167906ECF464EF71E070
:103570008CE291E00E94D60BF701158E80912C020F
:1035800090912D02019790932D0280932C02D801E7
:103590005D965C92809132029091330201969093F5
:1035A000330280933202D701ED91FC910280F381C6
:1035B000E02DC7010995029721F58A149B040CF1AF
:1035C000B8E0AB0EB11C8A149B04DCF46C147D04CF
:1035D000C4F0E8E0CE0ED11C6C147D0494F4D80144
:1035E0005D965C92809132029091330202979093A3
:1035F00033028093320264E670E088E893E10E942F
:10360000D60B8BEA96E00E943C0D882329F08BEACA
:1036100096E00E942A0D82CFD801ED91FC910280A4
:10362000F381E02DC8010995039709F0D4C0F80192
:103630004481558162817381E0912802F0912902D1
:103640008481958122813381FB0138962E173F07B3
:103650000CF0C1C0285F3F4F621773070CF0BBC06E
:103660009A01285F3F4F821793070CF0B4C0089669
:10367000481759070CF0AFC0E091AD06F091AE06C7
:10368000F093B206E093B1068091AB069091AC0640
:10369000892B71F080819181009739F0DC01ED91E7
:1036A000FC910484F585E02D09950E94080FE4CF74
:1036B0000E94010C1092310210923002EEE1F0E013
:1036C000F0932F02E0932E0284ED91E00E94DD0E34
:1036D0008BEE91E00E94DD0E8091320290913302D8
:1036E0000E94AD0E80EC91E00E94DD0E8BEF91E028
:1036F0000E94DD0E10922D0210922C0210923302C5
:1037000010923202109227020E94210C80917100C7
:103710008D7F8093710081E08093260246E057E020
:103720005093250240932402509323024093220297
:103730000E942E0B00912A0210912B020F5F1F4F47
:1037400010932B0200932A0286E190E00E94F81B5E
:10375000FC0180E490E093838283A8E3B0E0B5832A
:10376000A48397838683B187A0871386128643E557
:1037700051E051834083158704878AE590E097875D
:103780008687118A108A138A128A158A148AF093FE
:103790002902E0932802BF018BEA96E00E94930F72
:1037A00088E00E94160C811107C064E670E080E09A
:1037B00090E00E941609F4CF81E080930F0164EF3E
:1037C00071E080E090E00E941609C1010E94EA0EBB
:1037D0000E94210CE7CBC1010E943C0D8823A9F374
:1037E000C1010E942A0D77CE8BEA96E00C94EA0E76
:1037F0000F931F93CF93DF938230910510F482E0F3
:1038000090E0E091B906F091BA0630E020E0B0E037
:10381000A0E0309799F42115310509F44AC0281B1E
:10382000390B24303105D8F58A819B8161157105EA
:1038300089F1FB0193838283FE0111C04081518194
:103840000281138148175907E0F04817590799F486
:10385000109761F012960C93129713961C93329660
:10386000CF01DF91CF911F910F9108950093B90679
:103870001093BA06F4CF2115310551F042175307C2
:1038800038F0A901DB019A01BD01DF01F801C1CFC8
:10389000EF01F9CF9093BA068093B906CDCFFE0120
:1038A000E20FF31F819391932250310939832883CA
:1038B000D7CF2091B7063091B806232B41F4209141
:1038C0001201309113013093B8062093B70620916E
:1038D0001001309111012115310541F42DB73EB78A
:1038E0004091140150911501241B350BE091B7064E
:1038F000F091B806E217F307A0F42E1B3F0B281730
:10390000390778F0AC014E5F5F4F2417350748F058
:103910004E0F5F1F5093B8064093B7068193919363
:103920009FCFF0E0E0E09CCFCF93DF930097E9F0EA
:10393000FC01329713821282A091B906B091BA06A7
:10394000ED0130E020E01097A1F420813181820F59
:10395000931F2091B7063091B8062817390709F050
:1039600061C0F093B806E093B706DF91CF91089558
:10397000EA01CE17DF07E8F54A815B819E01411518
:103980005105B1F7E901FB83EA8349915991C40FCD
:10399000D51FEC17FD0761F4808191810296840F99
:1039A000951FE90199838883828193819B838A8310
:1039B000F0E0E0E012968D919C9113970097B9F595
:1039C0002D913C911197CD010296820F931F20916A
:1039D000B7063091B8062817390739F6309751F5F0
:1039E0001092BA061092B906B093B806A093B70623
:1039F000BCCFD383C28340815181840F951FC817E8
:103A0000D90761F44E5F5F4F88819981480F591F34
:103A1000518340838A819B81938382832115310561
:103A200009F0B0CFF093BA06E093B9069ECFFD013E
:103A3000DC01C0CF13821282D7CF8F929F92AF92B8
:103A4000BF92CF92DF92EF92FF92CF93DF93EC0180
:103A5000688179818A819B81611571058105910554
:103A600021F464E279ED8BE597E02DE133EF41E05D
:103A700050E00E94D71D49015A019B01AC01A7EA01
:103A8000B1E40E94F61D6B017C01ACEEB4EFA50120
:103A900094010E94041EC60ED71EE81EF91EF7FEF2
:103AA00006C081E0C81AD108E10880E8F80AC88297
:103AB000D982EA82FB82C701B6019F77DF91CF915D
:103AC000FF90EF90DF90CF90BF90AF909F908F903E
:103AD00008958F929F92AF92BF92CF92DF92EF9212
:103AE000FF926091160170911701809118019091D9
:103AF0001901611571058105910521F464E279EDE3
:103B00008BE597E02DE133EF41E050E00E94D71DB7
:103B100049015A019B01AC01A7EAB1E40E94F61DDC
:103B20006B017C01ACEEB4EFA50194010E94041E70
:103B3000C60ED71EE81EF91EF7FE06C081E0C81AA1
:103B4000D108E10880E8F80AC0921601D092170166
:103B5000E0921801F0921901C701B6019F77FF901A
:103B6000EF90DF90CF90BF90AF909F908F9008958F
:103B700060931601709317018093180190931901B7
:103B80000895F999FECF92BD81BDF89A992780B525
:103B90000895262FF999FECF1FBA92BD81BD20BD91
:103BA0000FB6F894FA9AF99A0FBE01960895052E69
:103BB00097FB1EF400940E94EE1D57FD07D00E9453
:103BC000091E07FC03D04EF40C94EE1D5095409551
:103BD000309521953F4F4F4F5F4F089590958095B9
:103BE000709561957F4F8F4F9F4F08950E942B1EB8
:103BF000A59F900DB49F900DA49F800D911D112441
:103C00000895B7FF0C94F61D0E94F61D821B930BBE
:103C10000895A1E21A2EAA1BBB1BFD010DC0AA1F0D
:103C2000BB1FEE1FFF1FA217B307E407F50720F025
:103C3000A21BB30BE40BF50B661F771F881F991FA0
:103C40001A9469F760957095809590959B01AC01E9
:103C5000BD01CF010895A29FB001B39FC001A39FF2
:103C6000700D811D1124911DB29F700D811D1124B5
:103C7000911D08955058BB27AA270E94521E0C94EC
:103C8000611F0E94281F38F00E942F1F20F039F476
:103C90009F3F19F426F40C94251F0EF4E095E7FBE2
:103CA0000C941F1FE92F0E94861F58F3BA17620752
:103CB00073078407950720F079F4A6F50C94A81FE4
:103CC0000EF4E0950B2EBA2FA02D0B01B901900137
:103CD0000C01CA01A0011124FF27591B99F0593F7B
:103CE00050F4503E68F11A16F040A22F232F342FC3
:103CF0004427585FF3CF469537952795A795F04011
:103D00005395C9F77EF41F16BA0B620B730B840B25
:103D1000BAF09150A1F0FF0FBB1F661F771F881FDD
:103D2000C2F70EC0BA0F621F731F841F48F4879535
:103D300077956795B795F7959E3F08F0B0CF939527
:103D4000880F08F09927EE0F9795879508950E94A0
:103D5000381FE3950C94721F0E94B31E6894B11132
:103D60000C94A91F08950E948E1F88F09F5798F009
:103D7000B92F9927B751B0F0E1F0660F771F881F70
:103D8000991F1AF0BA95C9F714C0B13091F00E948A
:103D9000A81FB1E008950C94A81F672F782F8827DB
:103DA000B85F39F0B93FCCF3869577956795B395B1
:103DB000D9F73EF490958095709561957F4F8F4F20
:103DC0009F4F0895E89409C097FB3EF49095809525
:103DD000709561957F4F8F4F9F4F9923A9F0F92FD1
:103DE00096E9BB279395F695879577956795B7954F
:103DF000F111F8CFFAF4BB0F11F460FF1BC06F5F35
:103E00007F4F8F4F9F4F16C0882311F096E911C046
:103E1000772321F09EE8872F762F05C0662371F067
:103E200096E8862F70E060E02AF09A95660F771F7B
:103E3000881FDAF7880F9695879597F9089597F96F
:103E40009F6780E870E060E008959FEF80EC089540
:103E500000240A9416161706180609060895002469
:103E60000A94121613061406050608950C94251FCD
:103E70000E948E1FD8F3E894E0E0BB279F57F0F034
:103E80002AED3FE049EC06C0EE0FBB0F661F771F1F
:103E9000881F28F0B23A62077307840728F0B25AE5
:103EA000620B730B840BE3959A9572F7803830F4AC
:103EB0009A95BB0F661F771F881FD2F790480C9406
:103EC0004F20092E0394000C11F4882352F0BB0FED
:103ED00040F4BF2B11F460FF04C06F5F7F4F8F4F22
:103EE0009F4F0895EF93E0FF07C0A2EA2AED3FE05D
:103EF00049EC5FEB0E94521E0E94611F0F900394D9
:103F000001FC9058ECEAF0E00C945B2057FD9058CF
:103F1000440F551F59F05F3F71F04795880F97FB8D
:103F2000991F61F09F3F79F0879508951216130647
:103F30001406551FF2CF4695F1DF08C01616170676
:103F40001806991FF1CF86957105610508940895AB
:103F5000E894BB2766277727CB0197F908950E943D
:103F6000292008F48FEF08950E94C71F0C94611F49
:103F70000E94281F38F00E942F1F20F0952311F077
:103F80000C941F1F0C94251F11240C94A91F0E9430
:103F9000861F70F3959FC1F3950F50E0551F629FE8
:103FA000F001729FBB27F00DB11D639FAA27F00D92
:103FB000B11DAA1F649F6627B00DA11D661F829FB9
:103FC0002227B00DA11D621F739FB00DA11D621F9E
:103FD000839FA00D611D221F749F3327A00D611DBB
:103FE000231F849F600D211D822F762F6A2F11249D
:103FF0009F5750409AF0F1F088234AF0EE0FFF1FD0
:10400000BB1F661F771F881F91505040A9F79E3F26
:10401000510580F00C941F1F0C94A91F5F3FE4F31F
:10402000983ED4F3869577956795B795F795E7957C
:104030009F5FC1F7FE2B880F911D9695879597F985
:1040400008959F930E94381F0F9007FCEE5F0C9419
:10405000721F990F0008550FAA0BE0E8FEEF161625
:104060001706E807F907C0F012161306E407F5076C
:1040700098F0621B730B840B950B39F40A2661F0E0
:10408000232B242B252B21F408950A2609F4A14083
:10409000A6958FEF811D811D08959F3F31F09150AE
:1040A00020F4879577956795B795880F911D96951C
:1040B000879597F908959F938F937F936F93FF93BD
:1040C000EF939B01AC010E94B41FEF91FF910E94FE
:1040D0006F202F913F914F915F910C94B41FDF930C
:1040E000CF931F930F93FF92EF92DF927B018C018E
:1040F000689406C0DA2EEF010E94C71FFE01E89403
:10410000A5912591359145915591A6F3EF010E9416
:10411000521EFE019701A801DA9469F7DF90EF9033
:10412000FF900F911F91CF91DF910895EE0FFF1F28
:104130000590F491E02D099417E0C4E9D7E004C09C
:10414000FE010E9496202196C539D107C9F7F8943F
:02415000FFCF9F
:10415200FFFFFFFF00E1000000000000100100016E
:104162000000BB0680000100000000000000D00D2E
:10417200A80DCF0DAB0D960D950D8D0F0000000013
:104182002F0ED50D0F0E070E500DD40D8F0F4A0EA8
:104192003C0E6011D80DE40D00C1808100000000CA
:1041A200000000560D4D0DC10F540D500D4C0D8BDE
:1041B2000F000000002F0E590E0F0EE50D500DE3FB
:1041C2000D910F4A0E3C0E6011330EE40D000000FB
:1041D200002F0E920D160E5A0D500D290D890F4A01
:1041E2000E3C0E6011330EE40D00000000990A141B
:1041F2000ABA0AAF0A000BBE0ADC0A00000000C6B7
:104202000CE7095C0ECF0D7072657373205B415D24
:104212000A0055702F44776E2061696D0A0076316D
:104222002E316E005B5B2047414D45204F56455273
:1042320020434841544F215D5D0A002020206669D9
:104242006E616C2073636F72652000202020202035
:0C425200207072657373205B415D0000FA
:00000001FF
