:100000000C9495070C94BD070C94BD070C94BD0788
:100010000C94BD070C94BD070C94BD070C94BD0750
:100020000C94BD070C94BD070C94E0120C944F1374
:100030000C94BD070C94BD070C94BD070C94BD0730
:100040000C94BD070C94BD070C94BD070C94BD0720
:100050000C94BD070C94BD070C94BD070C9481153E
:100060000C94BD070C94BD070C94BD070C94BD0700
:100070000C94BD070C94BD070C94BD070C94BD07F0
:100080000C94CB150C94BD070C94BD070C94BD07C4
:100090000C94BD070C94BD070C94BD070C94BD07D0
:1000A0000C94BD070C94BD070C94BD0705A84CCD5E
:1000B000B2D44EB93836A9020C50B9918688083CA2
:1000C000A6AAAA2ABE000000803F08080098E83CC3
:1000D000FC8E000000000000003E5B4F5B3E3E6B6C
:1000E0004F6B3E1C3E7C3E1C183C7E3C181C577DD2
:1000F000571C1C5E7F5E1C00183C1800FFE7C3E71E
:10010000FF0018241800FFE7DBE7FF30483A060E2F
:100110002629792926407F050507407F05253F5A76
:100120003CE73C5A7F3E1C1C08081C1C3E7F1422E6
:100130007F22145F5F005F5F06097F017F00668991
:10014000956A606060606094A2FFA29408047E04D7
:100150000810207E201008082A1C08081C2A0808FD
:100160001E101010100C1E0C1E0C30383E383006BD
:100170000E3E0E06000000000000005F00000007B9
:10018000000700147F147F14242A7F2A12231308E7
:10019000646236495620500008070300001C2241C3
:1001A000000041221C002A1C7F1C2A08083E080867
:1001B0000080703000080808080800006060002017
:1001C000100804023E5149453E00427F40007249FA
:1001D0004949462141494D331814127F102745459E
:1001E00045393C4A494931412111090736494949B4
:1001F00036464949291E0000140000004034000022
:10020000000814224114141414140041221408028A
:10021000015909063E415D594E7C1211127C7F49FD
:100220004949363E414141227F4141413E7F494952
:1002300049417F090909013E414151737F0808087E
:100240007F00417F41002040413F017F081422414F
:100250007F404040407F021C027F7F0408107F3EA9
:100260004141413E7F090909063E4151215E7F0916
:10027000192946264949493203017F01033F40407D
:10028000403F1F2040201F3F4038403F6314081468
:100290006303047804036159494D43007F414141A0
:1002A0000204081020004141417F04020102044081
:1002B00040404040000307080020545478407F2805
:1002C0004444383844444428384444287F385454FB
:1002D000541800087E090218A4A49C787F0804041E
:1002E0007800447D40002040403D007F10284400BD
:1002F00000417F40007C047804787C08040478384E
:1003000044444438FC1824241818242418FC7C087D
:10031000040408485454542404043F44243C4040FA
:10032000207C1C2040201C3C4030403C44281028AD
:10033000444C9090907C4464544C440008364100F6
:100340000000770000004136080002010204023C70
:100350002623263C1EA1A161123A4040207A38543F
:1003600054555921555579412154547841215554BA
:10037000784020545579400C1E527212395555550B
:1003800059395454545939555454580000457C41F6
:100390000002457D420001457C40F0292429F0F00F
:1003A000282528F07C545545002054547C547C0A60
:1003B000097F4932494949323248484832324A482D
:1003C00048303A4141217A3A42402078009DA0A02D
:1003D0007D39444444393D4040403D3C24FF242481
:1003E000487E4943662B2FFC2F2BFF0929F620C09E
:1003F000887E090320545479410000447D413048EF
:10040000484A32384040227A007A0A0A727D0D1931
:10041000317D2629292F28262929292630484D4093
:1004200020380808080808080808382F10C8ACBA8F
:100430002F102834FA00007B000008142A1422220E
:10044000142A14089500220095AA005500AAAA555E
:10045000AA55AA000000FF00101010FF0014141489
:10046000FF001010FF00FF1010F010F0141414FC27
:10047000001414F700FF0000FF00FF1414F404FC44
:10048000141417101F10101F101F1414141F001025
:100490001010F0000000001F101010101F1010109E
:1004A00010F010000000FF101010101010101010AD
:1004B000FF10000000FF140000FF00FF00001F10ED
:1004C000170000FC04F414141710171414F404F4A7
:1004D0000000FF00F714141414141414F700F71498
:1004E0001414171410101F101F141414F4141010E7
:1004F000F010F000001F101F0000001F140000008B
:10050000FC140000F010F01010FF10FF141414FF82
:10051000141010101F00000000F010FFFFFFFFFF7D
:10052000F0F0F0F0F0FFFFFF0000000000FFFF0F11
:100530000F0F0F0F38444438447C2A2A3E147E02A1
:10054000020606027E027E02635549416338444436
:100550003C04407E201E2006027E020299A5E7A5EB
:10056000991C2A492A1C4C7201724C304A4D4D305C
:100570003048784830BC625A463D3E494949007E81
:100580000101017E2A2A2A2A2A44445F4444405118
:100590004A444040444A51400000FF0103E080FFCC
:1005A000000008086B6B083612362436060F090F58
:1005B00006000018180000001010003040FF010174
:1005C000001F01011E00191D1712003C3C3C3C009D
:1005D00000000000080B00020202000009040000F5
:1005E000010202000005240010010524010101049C
:1005F00024020605240600010705810310004009B6
:10060000040100020A000000070502024000000782
:100610000583024000000403090412010002EF02F6
:1006200001404123368000010102030141726475DB
:10063000696E6F204C4C430041726475696E6F2087
:100640004C656F6E6172646F00F0F89C8E878387D3
:100650008E9CF8F00000FEFF0303030303070EFC6B
:10066000F80000FEFF0303030303070EFCF800007D
:10067000FFFF00000000000000FFFF0000FEFF83FE
:1006800083838383C7EE7C380000F8FC0E070303E6
:1006900003070EFCF800003F7FE0C08080C0E07FD1
:1006A0003FFFFF01010101010101FFFF0000FFFF0A
:1006B0000C0C0C0C1C3E77E3C100007FFFC0C0C0D7
:1006C000C0C0E0703F1F00001F3F70E0C0C0C0E02E
:1006D000703F1F00007FFFC1C1C1C1C1E3773E1C55
:1006E00000001F3F70E0C0C0C0E0703F1F0000006E
:1006F000000001FFFF01000000D5F08D14A1C881AA
:10070000CFD9F1AF2000DC00E8030000FA00B80107
:10071000F4017003D007008008080080D0F0FEFCD0
:1007200020008040000000000000000000000000E9
:1007300000000000000000000000000000000000B9
:1007400000000000000000000000000000000000A9
:100750000000000000000000000000000000000099
:100760000000000000000000000000000000000089
:100770000000000000000000000000000000000079
:100780000060D028140A0D06071811E2E478000072
:100790000000000000000000000000000000000059
:1007A0000000000000000000000000000000000049
:1007B0000000000000000000000000000000000039
:1007C0000000000000000000000000000000000029
:1007D0000000000000000000000000000000000019
:1007E0000000000000000000000000000000000009
:1007F00000000000000000000000E01010088884E5
:1008000084FA0F00001E323218000081FF8F0408A6
:10081000081010F0000000000000000000000000C0
:1008200000000000000000000000000000000000C8
:1008300000000000000000000000000000000000B8
:1008400000000000000000000000000000000000A8
:100850000000000000000000000000000000000098
:100860000000000000000000000000000000000088
:100870000000000000000000101F080E72C30100FD
:10088000000000E03010F0101030E0000000010126
:10089000E1FA3E0C0F000000000000000000000024
:1008A0000000000000000000000000000000000048
:1008B000000000000080C078C0A0300000C02020F0
:1008C00060C000E0301010E00000000000000000F8
:1008D0000000000000000000000000000000000018
:1008E0000000000000000000000000808080C04088
:1008F000C0C0602070D0981810E00434E683BEE0D9
:10090000808080834678417E407E41404040404028
:100910007FFF80808084C4FC8484F8180800809065
:10092000702020A080808080808080808080C04077
:100930004020202020202020201F1010101F1010E9
:10094000080F080F08080007040404F0FC0E020258
:10095000021010A020204040404040404040404015
:10096000404040404040404000602120101FC848A7
:100970000407040602020301010101010000000056
:100980000000000000000000000000000000000067
:10099000000000000000000000000101010103024E
:1009A0000206070400000000000000000000000034
:1009B0000000000000000000000000000000000037
:1009C0000000000000000000000000010307840890
:1009D0000000000F0402C264D800001C12120E04B2
:1009E00018000404879E8202000E1112120C01905E
:1009F000161D0900000000000000000000000000BB
:100A000000000000000000000000000000000000E6
:100A100000000000000000000000000000000000D6
:100A20000000000000000000041CFCFCF0F0F0F0EE
:100A3000307090103060C0800000000000000000A6
:100A40000000000000000000000080601C030103A3
:100A50000E38E080E07F01000003063860C000002F
:100A60000000007FC0000187FC1830C00000000FAC
:100A70007CC40408F8800E1261C1800000F20702F5
:100A8000000080800000000000E0C02010181870F6
:100A9000C000000000000000000000000000000096
:100AA00000000000000000000000010103030FFF30
:100AB000C2C2C3C3C1C1C1C1FE80000000000000AA
:100AC0000000000000000000020100000000000023
:100AD0000000000103000000000000000001000011
:100AE0000000000000010101000000000100000002
:100AF000000300000007000008080700003F000096
:100B00001E618080611E0000003F010000000000A7
:100B1000031E200000000000000000000000000094
:100B20000000000080400000000000000000000005
:100B300000E0F038080000000000000000000000A5
:100B400000000000000000000000000000000000A5
:100B50000000000000000000000000000000000095
:100B60000000000000000000000000000000000085
:100B70000000000000000000000000000000000075
:100B800000000060D028140A0D06071811E2E4786E
:100B90000000000000000000000000000000000055
:100BA0000000000000000000000000000000000045
:100BB0000003070E08000000000000000000000015
:100BC0000000000000000000000000000000000025
:100BD0000000000000000000000000000000000015
:100BE0000000000000000000000000000000000005
:100BF000000000000000000000000000E0101008ED
:100C0000888484FA0F00001E323218000081FF8FA2
:100C10000408081010F000000000000000000000B0
:100C200000000000000000000000000000000000C4
:100C300000000000000000000000000000000000B4
:100C400000000000000000000000000000000000A4
:100C50000000000000000000000000000000000094
:100C60000000000000000000000000000000000084
:100C700000000000000000000000101F080E72C3FA
:100C80000100000000E03010F0101030E000000023
:100C90000101E1FA3E0C0F0000000000000000001E
:100CA0000000000000000000000000000000000044
:100CB0000000000000000080C078C0A0300000C02C
:100CC000202060C000E0301010E0000000F01010A4
:100CD000F000000000000000000000000000000024
:100CE0000000000000000000000000000080808084
:100CF000C040C0C0602070D0981810E00434E68373
:100D0000BEE0808080834678417E407E4140404006
:100D100040407FFF80808084C4FC8484F8180800F1
:100D20008090702020A08080808080808080808063
:100D3000C0404020202020202020201F1010101F05
:100D40001010080F080F0808000704040704040720
:100D500008080810102020204040404040404040FB
:100D60004040404040404040404000602120101F33
:100D70000808040704060202030101010101000042
:100D80000000000000000000000000000000000063
:100D9000000000000000000000000000010101014F
:100DA000030202060704000000000000000000002B
:100DB0000000000000000000000000000000000033
:100DC0000000000000000000000000000000000023
:100DD0000000000000000000000000000000000013
:100DE0000000000000000000000000000000000003
:100DF00000000000000000000000000000000000F3
:100E000000000000000000000000000000000000E2
:100E100000000000000000000000000000000000D2
:100E200000000000000000000000000000000000C2
:100E300000000000000000000000000000000000B2
:100E400000000000000000000000000000000000A2
:100E50000000000000000000000000000000000092
:100E60000000000000000000000000000000000082
:100E70000000000000000000000000000000000072
:100E80000000000000000000000000000000000062
:100E90000000000000000000000000000000000052
:100EA0000000000000000000000000000000000042
:100EB0000000000000000000000000000000000032
:100EC0000000000000000000000000000000000022
:100ED0000000000000000000000000000000000012
:100EE0000000000000000000000000000000000002
:100EF00000000000000000000000000000000000F2
:100F000000000000000000000000000000000000E1
:100F100000000000000000000000000000000000D1
:100F2000000000000000A416A91C11241FBECFEF72
:100F3000DAE0DEBFCDBF12E0A0E0B1E0E6E1F3E42D
:100F400002C005900D92AA30B107D9F726E0AAE0B9
:100F5000B2E001C01D92A43CB207E1F717E0C4E97A
:100F6000D7E004C02197FE010E947321C339D10745
:100F7000C9F70E94EF160C947E210C94000080911A
:100F8000240208954F925F927F928F929F92AF9228
:100F9000BF92CF92DF92EF92FF920F931F93CF9366
:100FA000DF939C014115510509F4ADC0FA01C491CC
:100FB0003196E491AC2FB0E08D01080F191F101687
:100FC00011060CF0A0C0803891050CF09CC0CB013C
:100FD0008E0F911D181619060CF095C0603471051E
:100FE0000CF091C0F62FF7709F2ECB0177FD07967E
:100FF000F3E095958795FA95E1F7F82F77FF04C010
:10100000992011F0FFEFF80F66277727621B730B0B
:1010100037FD02C070E060E07C2E003811051CF046
:1010200000E8021B702E761AEF2E0F2E000CFF0820
:10103000DE2DD095FF3F0CF0D0E091E08E2F877031
:1010400009F490E0E695E695E6959E0FE90EF11C11
:1010500009E0E016F10414F098E09F1B1D2F1F0F0C
:1010600000E81003700111242E0D3F1D260F371FBD
:101070004E5F5F4FCD9F600D711D1124460F571FAE
:10108000E92C092C000CFF086FEF70E0092C02C05E
:10109000660F771F0A94E2F760957095872E9F0F71
:1010A000911789F1E901CF5BDD4FD12CC12CC71419
:1010B00020F5FA01EC0DFD1DE491F0E02F010E2C5E
:1010C00002C0440C551C0A94E2F717FD04C0888145
:1010D000862384298883992059F017304CF45E01C7
:1010E00080E8A80EB11CF5018081882185298083C4
:1010F000FFEFCF1ADF0A2196DACF1F5F4A0F5B1F7F
:1011000020583F4FCDCFDF91CF911F910F91FF908E
:10111000EF90DF90CF90BF90AF909F908F907F9097
:101120005F904F900895E1E4F2E0A0E0B8E0008025
:101130000EBC8111012C1197A0FDFDCF0192B9F7D2
:101140000DB4089580E0E1E4F2E081118FEF002416
:1011500081938193819381930394D1F7E9EAF6E037
:10116000128A118A108A17860895FC018091400224
:10117000882311F13FB7F89482E08093E900209131
:10118000F200822F90E01816190614F481E090E026
:10119000882339F0289844E640933F024091F100BB
:1011A0004083222339F02091F200211103C02BE665
:1011B0002093E8003FBF08958FEF9FEF08952FB76A
:1011C000F89483E08093E9009091E800892F807281
:1011D00095FF04C09091F20080E4891B2FBF089511
:1011E0008091370281110DC082E08093330284E048
:1011F00080933402109236021092350281E080937F
:10120000370283E392E0089540911E0250911F023D
:1012100020911C0230911D0242175307B4F49091A3
:10122000E8009570E1F39091E80092FD19C0809379
:10123000F10080911E0290911F0201968F739927F1
:10124000892B19F48EEF8093E80080911E02909113
:101250001F02019690931F0280931E0281E0089561
:1012600080E00895DF92EF92FF920F931F93CF9348
:10127000DF93D82E8A01EB017B01E40EF51ECE151B
:10128000DF0559F0D7FE12C0FE0184910E940409C7
:1012900021968111F4CF0FEF1FEFC801DF91CF919D
:1012A0001F910F91FF90EF90DF9008958881EECF0E
:1012B0000F931F93CF93DF931F92CDB7DEB782E0DA
:1012C000898342E450E064ED75E080E80E943209D1
:1012D0000E94F008DC0112960D911C910115110578
:1012E00089F0D801ED91FC910280F381E02DBE01DF
:1012F0006F5F7F4FC801099597FD04C0F801008515
:101300001185ECCF89810F90DF91CF911F910F91C3
:101310000895615030F02091F100FC012083019686
:10132000F8CF289884E680933F020895AF92BF9249
:10133000CF92DF92EF92FF920F931F93CF93DF93A1
:101340006C017B018B01040F151FEB015E01AE18D0
:10135000BF08C017D10759F06991D601ED91FC91F2
:101360000190F081E02DC6010995892B79F7C5011F
:10137000DF91CF911F910F91FF90EF90DF90CF9071
:10138000BF90AF900895CF93DF931F92CDB7DEB794
:101390006983DC01ED91FC910280F381E02D41E055
:1013A00050E0BE016F5F7F4F09950F90DF91CF91A5
:1013B000089583E08093E9008091F200882319F07A
:1013C0008AE38093E80008950E94DF0890E0089582
:1013D000CF93DF931F92CDB7DEB7FC01848595854F
:1013E00097FD08C02FEF3FEF358724870F90DF91DF
:1013F000CF910895CE0101960E94B508019719F486
:10140000898190E0F3CF8FEF9FEFF0CF0F931F9381
:10141000CF93DF931F92CDB7DEB78C01FC0184859B
:10142000958597FF0BC0CE0101960E94B5080197E4
:1014300071F4898190E0F80195878487F8018485AB
:1014400095850F90DF91CF911F910F9108958FEFA8
:101450009FEFF1CFFC018485958597FD0BC09FB769
:10146000F89482E08093E9008091F2009FBF90E0C1
:10147000019608959FB7F89482E08093E9008091E7
:10148000F2009FBF90E008953FB7F8948091180252
:1014900090911902A0911A02B0911B0226B5A89B47
:1014A00005C02F3F19F00196A11DB11D3FBFBA2FF6
:1014B000A92F982F8827BC01CD01620F711D811DB6
:1014C000911D42E0660F771F881F991F4A95D1F73B
:1014D00008958F929F92AF92BF92CF92DF92EF9238
:1014E000FF926B017C010E94440A4B015C01C11414
:1014F000D104E104F104B9F00E94440A68197909A1
:101500008A099B09683E73408105910580F321E0BB
:10151000C21AD108E108F10888EE880E83E0981E0F
:10152000A11CB11CE4CFFF90EF90DF90CF90BF9053
:10153000AF909F908F9008958F929F92AF92BF929D
:10154000CF92DF92EF92FF920F931F93CF93DF938F
:101550006C017B018A0180910B01882309F45CC036
:1015600080914002882309F457C08091220280FFB5
:1015700005C08091E00082608093E000E801B12C1A
:101580008AEFA82E93E0892E2AE3922E209711F459
:10159000BB20D9F10E94DF0881110AC0AA94AA20B9
:1015A000D9F161E070E080E090E00E94690AEECF3E
:1015B0008C171D0611F00CF08C2F9FB7F8948092B9
:1015C000E9002091E80025FD02C09FBFDFCF282F52
:1015D00030E0C21BD30BF701815020F041914093C2
:1015E000F100FACFE20EF31EBB2021F09092E8004A
:1015F000B12CEBCF8091E80085FDE7CF9092E80019
:10160000BB24B394209709F3F3CF5D9884E68093CD
:101610002102101611063CF081E090E0F601938360
:10162000828310E000E0C801DF91CF911F910F91FC
:10163000FF90EF90DF90CF90BF90AF909F908F90F2
:1016400008952FB7F894609114027091150280915B
:101650001602909117022FBF089520912902E09160
:101660002702F0912802CF010296909328028093DE
:101670002702222319F08591949108958081918108
:101680000895CF92DF92EF92FF92CF93DF930E9463
:101690002D0B811520E8920791F4809171008D7FC8
:1016A00080937100109291004698479810920C0216
:1016B000DF91CF91FF90EF90DF90CF90089521E0E0
:1016C00020930C02813020E8920751F4809125028A
:1016D0009091260290932802809327020E942D0B5E
:1016E00097FD05C020910B02222309F454C02091DC
:1016F0000A02211150C021E020930D02EC01DF7796
:10170000209709F04BC081E080930E0246983FE994
:10171000C32E3FE0D32EE12CF12CCAEFD0E0E091B4
:101720009F06F091A0060995811103C081E0809386
:101730000E0280910D02882329F080910E028823E9
:1017400009F43FC047980E942D0B0097F1F19C01CE
:10175000DE010E94E01EDC01CB0129E0B595A795D2
:10176000979587952A95D1F7109290002AE02093BB
:101770009100D0929900C092980080930F029093AC
:101780001002A0931102B093120280917100826046
:10179000809371008DCF10920D02B0CF9E0150E06A
:1017A00040E060E472E48FE090E00E948C1E6901EA
:1017B0007A0181E0C81AD108E108F10810920E02FE
:1017C000AECF4699BFCF479ABECF8FEF9FEFDC01D8
:1017D000CBCF9C01E1E7F0E090819D7F9083109258
:1017E0002902E1E9F6E0F0932802E0932702F09362
:1017F0002602E0932502318320837383628380E095
:1018000090E8958384830C94410B2D9A0895BC0134
:1018100090E080E00C94690A8FB18095807F669B90
:1018200088601C9B8460089580389105B8F460340A
:101830007105A0F420E191E061FD94E060FD990F55
:1018400062FD9295687F269FD0011124A80FAF5B9F
:10185000BD4F8C9140FF03C0892B8C9308959095C8
:101860008923FBCF2F923F924F925F926F927F928C
:101870008F929F92AF92BF92CF92DF92EF92FF92A0
:101880000F931F93CF93DF93EC018B017A016901D2
:10189000C61AD70AD7FE03C0D194C194D108470114
:1018A0008C1A9D0A97FE03C09194819491088C1420
:1018B0009D0454F49E2D8F2D7901292F382F9C2FB4
:1018C0008D2FE801092F182FEC16FD0654F4902FE8
:1018D000812F8901292F382F9C2F8D2FE701E92E89
:1018E000F82E17012C1A3D0A2901401A510A57FEF9
:1018F00003C0519441945108310137FE03C08FEF6A
:10190000681A780A759467948FEF021713070CF41E
:1019100081E0A82E880FBB08EC16FD06A4F041E07C
:10192000BE01C8018C149D0414F0B801CE010E94C0
:10193000140C6418750877FE04C00A0D1B1D620C98
:10194000731C2196E9CFDF91CF911F910F91FF90EA
:10195000EF90DF90CF90BF90AF909F908F907F904F
:101960006F905F904F903F902F9008952F923F92ED
:101970004F925F926F927F928F929F92AF92BF929F
:10198000CF92DF92EF92FF920F931F93CF93DF934B
:10199000CDB7DEB72A970FB6F894DEBF0FBECDBF26
:1019A0009A8389836A3061F5DC0155968C91B8E0A1
:1019B0008B9F90011124E981FA8181899289820F9C
:1019C000931F928B818B108A178681E090E02A9674
:1019D0000FB6F894DEBF0FBECDBFDF91CF911F9140
:1019E0000F91FF90EF90DF90CF90BF90AF909F90BE
:1019F0008F907F906F905F904F903F902F900895C1
:101A00006D3019F329813A813A872987D9011F96C8
:101A1000AD90BC90B0E8AB16B1040CF07BC0F901FE
:101A2000C188D288F0E4CF16D1040CF073C0D9017C
:101A300055966C90559745E09501649E200D311D9B
:101A40001124121613060CF065C0262C312C9101BE
:101A500053E0220F331F5A95E1F72C0D3D1D12164E
:101A600013060CF057C05496BC91BB83E985FA85E8
:101A7000F389FC83649FB00111249B012C523F4FDA
:101A80003A832983712CE981FA818491F5E07F12F0
:101A900001C080E0460138E0532E282F30E03E831D
:101AA0002D834C8080FF4B80411004C03B818C8192
:101AB0003817E1F010E000E00615C0F4D501A00FE2
:101AC000B11FB887AF83F12CE12CE61460F4B701A5
:101AD000680D791D442D8F8198850E94140CBFEFED
:101AE000EB1AFB0AF2CF0F5F1F4FE6CF8D819E816D
:101AF000959587955A94820C931C5110CECF739470
:101B0000E981FA813196FA83E983A20CB31CF6E0ED
:101B10007F12B9CFA985BA8555962C915597422F3A
:101B200050E01F968D919C91B6E02B9F800D911DEA
:101B30001124E985FA85908B87872689222309F469
:101B400044CF6AEF64039001659F300D1124205843
:101B50003F4F281739070CF038CFDF010190F08193
:101B6000E02D0190F081E02D6AE0CD0109952DCFA7
:101B70000895089590E080E008950895FC01808123
:101B80009181892B59F0A681B78112968D919C91F4
:101B9000009721F09783868381E0089580E008957F
:101BA000DC012D913C911197232B41F01696ED917C
:101BB000FC9181E022813381232B09F480E0089598
:101BC000089582E090E0089560E070E0CB01089510
:101BD00080E00895FC01828193810895CF92DF9285
:101BE000EF92FF921F93CF93DF93FC01158D11238A
:101BF00049F1EC010E94210BAB01BC018F85988952
:101C0000A989BA89CB88DC88ED88FE888C0D9D1D5A
:101C1000AE1DBF1D84179507A607B707A8F48091CE
:101C20002F029091300201979093300280932F02FF
:101C30001D8E812FDF91CF911F91FF90EF90DF904C
:101C4000CF90089511E0F5CF10E0F3CF83E090E05E
:101C5000089508950F931F93FC0164817581868117
:101C600097810085118522853385600F711F821F42
:101C7000931F1F910F91089585E090E008950F93B1
:101C80001F93CF93DF93EC010E94210BAB01BC01AA
:101C90008C819D81AE81BF81088519852A853B8510
:101CA000800F911FA21FB31F84179507A607B707C0
:101CB00040F410922A0281E0DF91CF911F910F91A1
:101CC000089580E0F9CFFC01828193810895089501
:101CD00084E090E00895FC0122853385408551859C
:101CE00066817781848195810C94320C08950895E2
:101CF0000F931F93CF93DF93EC010E94210B8B0175
:101D00009C014F85588969897A898B899C89AD891D
:101D1000BE89840F951FA61FB71F41E0801791074A
:101D2000A207B30708F040E0842FDF91CF911F9105
:101D30000F910895FC01858D811103C0CF010C9492
:101D4000780E0895DC01ED91FC910288F389E02D75
:101D50000994DC015E962D913C915F972F5F3F4F78
:101D60005F963C932E935E972430310534F4ED91C9
:101D7000FC910488F589E02D0994FC01178E168EDC
:101D80000C94A20EFC01828193810895FC01438D85
:101D9000548D66817781848195810C94C207FC0102
:101DA0002485358588E691E0821B930B958784878F
:101DB0002A3531050CF408950895FC0124853585F4
:101DC00084EB90E0243B310514F08CE192E0821B1F
:101DD000930B95878487089581E090E008958F9212
:101DE0009F92AF92BF920F931F93CF93DF93CDB784
:101DF000DEB7A1970FB6F894DEBF0FBECDBF19A214
:101E0000423008F44AE08E010F5D1F4F842E912C62
:101E1000B12CA12CA50194010E94BE1EE62FB90190
:101E2000CA01EA3044F5E05DD801EE938D01232B21
:101E3000242B252B79F790E080E0109769F0FD01C5
:101E400001900020E9F73197AF014A1B5B0BBD0100
:101E500089EA96E00E949609A1960FB6F894DEBF33
:101E60000FBECDBFDF91CF911F910F91BF90AF906B
:101E70009F908F900895E95CD7CFCF92DF92EF9239
:101E8000FF92CF93DF936C01990FEE08FF08F7FEE6
:101E900019C06DE289EA96E00E94B60CEC01662753
:101EA0007727CB016C197D098E099F094AE00E94B2
:101EB000EF0E8C0F9D1FDF91CF91FF90EF90DF9081
:101EC000CF9008954AE0C701B601DF91CF91FF900E
:101ED000EF90DF90CF900C94EF0EFC01019000206A
:101EE000E9F73197AF01481B590BBC0189EA96E02D
:101EF0000C949609CF93DF938091A1069091A2064E
:101F0000009709F44EC001979093A2068093A10612
:101F1000E091A706F091A806C481D581209721F011
:101F2000228133813B832A83A281B381109721F0E0
:101F30001596DC93CE931497892B89F41092A606FC
:101F40001092A5061092A8061092A7061092A40659
:101F50001092A306CF01DF91CF910C94491D80917F
:101F6000A3069091A406E817F90749F4B093A406D4
:101F7000A093A306B093A806A093A706EBCF8481F5
:101F800095812091A5063091A606E217F30721F46A
:101F90009093A6068093A5069093A8068093A70623
:101FA000D9CFDF91CF910895CF93DF932091A106F0
:101FB0003091A206232BC1F0EC018091A3069091F1
:101FC000A4069093A8068093A706E091A706F09137
:101FD000A80680819181C817D90749F081EA96E067
:101FE0000E94BE0D8111F1CFDF91CF910895DF9155
:101FF000CF910C947A0F0C94491DCF93DF93FC0181
:1020000020813181232BA1F0EC018A819B810097F3
:1020100049F0EA81FB81228133813B832A830E943C
:10202000491DF3CF1D821C821F821E821B821A82D1
:10203000DF91CF9108950C94491D0C94491D0C9487
:10204000491D0C94491D0F931F93CF93DF93EC010F
:102050008B0186E090E00E94AD1CFC01AC81BD814B
:102060001183008313821282B583A48388819981AE
:10207000009771F4FB83EA83FD83EC83FF83EE8397
:10208000019699838883DF91CF911F910F910895D5
:102090001396FC93EE931297FD83EC83F1CF0C948F
:1020A000761E0E9479212F923F924F925F926F92FB
:1020B0007F928F929F92AF92BF92CF92DF92EF92D8
:1020C000FF920F931F93CF93DF9300D01F92CDB752
:1020D000DEB78C010E940C0C85FF08C0F8018481DA
:1020E0009581019797FD68C1958384830E940C0CAC
:1020F00086FF0AC0F8018481958101968937910590
:102100000CF05DC195838483F801668177814AEC88
:1021100050E0848195810E94C2070E940C0C82FFCE
:102120008EC080912A0281118AC02091C006309110
:10213000C106CE010196821B930B853691050CF4E6
:102140007EC064E670E08CEB92E00E94E90BC090E8
:102150002D02D0902E02FFEFCF1ADF0AD0922E026E
:10216000C0922D02F80184849584A684B784628489
:1021700073848EE190E00E94AD1C7C0182E691E0C8
:10218000F701918380831186108613861286552469
:10219000539456861786108A118A128A95828482F1
:1021A000B782A68275866486D382C28288E893E16C
:1021B000A0E0B0E0838B948BA58BB68B83E090E09E
:1021C000A0E0B0E0878B908FA18FB28F148E138E1A
:1021D0000E94210BF7016787708B818B928B8DE2B8
:1021E00091E091838083158EB70181EA96E00E9489
:1021F00023108CE090E00E94AD1C7C018BE191E00B
:10220000F701918380831482158216821782D3820C
:10221000C28288EC90E0A0E0B0E080879187A2873E
:10222000B3870E94210BF7016483758386839783AC
:1022300050922A02B70181EA96E00E942310F80129
:10224000848195819C012B5F3F4F3B832A832680AD
:1022500037800E940C0C84FF09C0F80180859185AD
:10226000181619061CF40497918780870E940C0C9D
:1022700087FF09C0F80180859185843B91051CF496
:10228000049691878087F8018085918564EB70E0E2
:10229000681B790B73876287072E000C880B990BDC
:1022A0000E94991F25E33AEF4EE85CE30E94692003
:1022B0006B017C010E945C1F2B013C012A813B8148
:1022C000B901330F880B990B0E94991F4B015C01D8
:1022D00020E030E040E850E4C301B2010E946920F0
:1022E0009B01AC01C501B4010E94F01E4B015C01D1
:1022F00020E030E0A9010E94642020E030E040E0CE
:102300005FE387FD5FC0C501B4010E94F01E0E941B
:10231000611F5B01F80175876487C701B6010E94E0
:10232000D6202B013C01B101032C000C880B990B2A
:102330000E94991F6B017C0120E030E040E850E4EE
:10234000C301B2010E9469209B01AC01C701B60123
:102350000E94EF1E6B017C0120E030E0A9010E9489
:10236000642020E030E040E05FE387FD30C0C7013B
:10237000B6010E94F01E0E94611FF80177876687F0
:102380009B01A501B1018A819B810F900F900F9055
:10239000DF91CF911F910F91FF90EF90DF90CF9041
:1023A000BF90AF909F908F907F906F905F904F9075
:1023B0003F902F900C94320C88E790E095CE1582D8
:1023C0001482A2CEC501B4010E94EF1EA0CFC701A6
:1023D000B6010E94EF1ECFCF4F925F926F927F9215
:1023E0008F929F92AF92BF92CF92DF92EF92FF9225
:1023F000CF93DF9300D000D000D0CDB7DEB79E835F
:102400008D83DC0114968D919C91159781389105EF
:1024100040F0ED91FC9111970684F785E02DCD01F8
:102420000995ED81FE81868197818134910548F07F
:102430000190F081E02D0088F189E02D8D819E8151
:102440000995AD81BE811C966D917C91072E000C83
:10245000880B990B0E94991F25E33AEF4EE85CE345
:102460000E9469204B015C01ED81FE816789708DBE
:10247000818D928D0E94971F6B017C01C501B40173
:102480000E945C1F69837A838B839C83AD81BE81AC
:1024900014966D917C91072E000C880B990B0E946D
:1024A000991F2B013C0129813A814B815C81C70135
:1024B000B6010E9469209B01AC01C301B2010E94D8
:1024C000F01E2B013C0120E030E0A9010E946420B5
:1024D00020E030E040E05FE387FD68C0C301B20167
:1024E0000E94F01E0E94611FED81FE81718760874E
:1024F000C501B4010E94D6204B015C01AD81BE81B3
:1025000016966D917C91072E000C880B990B0E94FA
:10251000991F2B013C01A5019401C701B6010E943E
:1025200069209B01AC01C301B2010E94EF1E6B0147
:102530007C0120E030E0A9010E94642020E030E02E
:1025400040E05FE387FD37C0C701B6010E94F01E7F
:102550000E94611FED81FE8173876287DF01019018
:10256000F081E02D0488F589E02DCD010995ED81FC
:10257000FE81808591859583848382859385978369
:10258000868326960FB6F894DEBF0FBECDBFDF91CF
:10259000CF91FF90EF90DF90CF90BF90AF909F9042
:1025A0008F907F906F905F904F900895C301B2011C
:1025B0000E94EF1E97CFC701B6010E94EF1EC8CF41
:1025C0001F920F920FB60F9211248F939F938091B9
:1025D000E1009091E100937F9093E10083FF0FC0B1
:1025E0001092E90091E09093EB001092EC0092E3DE
:1025F0009093ED001092400298E09093F00082FFDB
:1026000022C093E09093E9009091F200992319F091
:102610009AE39093E80090912102992341F09091E0
:102620002102915090932102911101C05D9A9091E5
:102630003F02992341F090913F02915090933F02C5
:10264000911101C0289A84FF18C08091E2008E7E0B
:1026500081608093E2008091E1008F7E8093E100B1
:10266000809122028E7E8061809322029F918F91C1
:102670000F900FBE0F901F90189580FFF7CF80919D
:10268000E2008E7E80618093E2008091E1008E7E88
:102690008093E100809122028E7E8160E5CF1F92BF
:1026A0000F920FB60F921124CF92DF92EF92FF920A
:1026B0000F931F932F933F934F935F936F937F934A
:1026C0008F939F93AF93BF93EF93FF93CF93DF933A
:1026D000CDB7DEB76C97DEBFCDBF1092E900809119
:1026E000E80083FF25C068E0CE0145960E94890975
:1026F00082EF8093E8008D8987FF39C09091E800D0
:1027000090FFFCCF982F907609F034C19E894F89B5
:10271000588D2F89F88C911131C0803861F58091E6
:1027200023028093F1001092F1008EEF8093E80075
:102730006C960FB6F894DEBF0FBECDBFDF91CF9180
:10274000FF91EF91BF91AF919F918F917F916F9189
:102750005F914F913F912F911F910F91FF90EF90BB
:10276000DF90CF900F900FBE0F901F9018959EEFA7
:102770009093E800C7CF1092F100D5CF913059F473
:102780008111D3CF4130510581F6809123028D7F95
:1027900080932302CACF933049F48111C6CF4130D0
:1027A000510519F6809123028260F2CF953041F4F1
:1027B0008091E80080FFFCCF20682093E300B5CF34
:1027C000963009F0A9C00B8D1C8D22E01092E90013
:1027D00010921F0210921E02F2122EC010921D02C1
:1027E00010921C020E9458091F8299E09983FA8274
:1027F00091E09E8390EA98879AEF998720911E0234
:1028000030911F02275F3F4F3C832B838D831092B3
:10281000E90010921F0210921E0210931D020093F5
:102820001C0249E050E0BE016F5F7F4F80E00E94D4
:1028300032090E94580979CF10931D0200931C029F
:102840000E94F008DC0112960D911C9101151105F2
:1028500009F451C1D801ED91FC910480F581E02D7E
:10286000BE016B5E7F4FC8010995009709F03EC11C
:10287000F80100851185EACFF3E0FF120EC08F89C1
:10288000882309F440C0823061F440E860E188E3C5
:1028900096E00E942C16811148CF81E28093EB00D4
:1028A00047CF813029F440E86BE08CE296E0F1CF2D
:1028B000833099F70E94F008DC011296ED90FC90AD
:1028C0008E010F5F1F4F6801E114F10479F0D70109
:1028D000ED91FC910680F781E02DB801C7010995C3
:1028E000080F111DF701E084F184EECFD8011C928E
:1028F000F60101900020E9F73197BF016C197D09BD
:1029000040E0C601C6CF66E176E0FB01449150E0AD
:1029100080E80E94320909CF973009F4BECF983081
:1029200021F481E08093F10000CF993009F0FDCED1
:10293000837009F0B2CFE6E4F1E081E031E096E3A4
:102940002191222371F08093E9003093EB00DF01A5
:1029500011972C912093EC009093ED008F5F8730BE
:1029600079F78EE78093EA001092EA008F898093CE
:102970004002DBCE8B8D9C8D1092E90010921F02DD
:1029800010921E0290931D0280931C02898D81116A
:1029900092C08E899D89913A49F4813209F07DCFA8
:1029A00047E050E064E071E080E0B3CF913209F09D
:1029B00074CF833269F48F89988DB0E0A0E0809362
:1029C000000190930101A0930201B0930301ADCEE9
:1029D000803269F48091E80082FFFCCF67E084E0F8
:1029E00091E00E9489098BEF8093E8009ECE8232AD
:1029F00009F09BCE8F8980930B01EEEFFFE7859165
:102A000094918B3F9C4D51F1E0E0F8E080910401FE
:102A100090910501A0910601B0910701803B94407F
:102A2000A105B105F1F480910B0180FD1AC0EE3FC4
:102A30008AE0F80789F587E797E79183808380919B
:102A400060008093200288E19BE00FB6F894A8957F
:102A5000809360000FBE9093600067CEEEEFFAE0C7
:102A6000D5CF808191818737974709F05ECEA895B1
:102A70008091600088618093600080912002809343
:102A80006000EE3F2AE0F20789F08091FE0A909103
:102A9000FF0A9183808349CE80819181873798078F
:102AA00051F29093FF0A8093FE0AC5CF1092FF0A5D
:102AB0001092FE0A3ACE0E94F008DC0112960D91A7
:102AC0001C910115110509F4E8CED801ED91FC9196
:102AD0000190F081E02DBE016B5E7F4FC80109952A
:102AE000811123CEF80100851185EBCF1816190648
:102AF0000CF41BCED2CEF1E0FF12BECE6AE176E03E
:102B000004CF1F920F920FB60F9211242F933F9371
:102B10008F939F93AF93BF9380911402909115026E
:102B2000A0911602B09117023091130223E0230FF7
:102B30002D3758F50196A11DB11D209313028093E6
:102B4000140290931502A0931602B093170280917D
:102B5000180290911902A0911A02B0911B020196DD
:102B6000A11DB11D8093180290931902A0931A021F
:102B7000B0931B02BF91AF919F918F913F912F9185
:102B80000F900FBE0F901F90189526E8230F029606
:102B9000A11DB11DD2CF1F920F920FB60F9211241B
:102BA0002F933F934F935F936F937F938F939F9355
:102BB000AF93BF93EF93FF9380910F029091100218
:102BC000A0911102B0911202892B8A2B8B2B09F450
:102BD00040C080910E0281110BC088B190E489271A
:102BE00088B980910D02882319F088B1805888B97E
:102BF00080910F0290911002A0911102B0911202E7
:102C0000181619061A061B069CF480910F02909163
:102C10001002A0911102B09112020197A109B1090D
:102C200080930F0290931002A0931102B0931202AE
:102C3000FF91EF91BF91AF919F918F917F916F9194
:102C40005F914F913F912F910F900FBE0F901F906A
:102C500018950E94410BECCFEF92FF920F931F93B8
:102C6000CF93DF93F82E192FE62E042F81E0860FE5
:102C7000880F0E94040983E00E940409CF2DD12F00
:102C8000EC0EFD2EF11CCE15DF05B9F007FF13C0C9
:102C9000FE0184910E940409182F80E00E9404091B
:102CA000812321968111EFCFDF91CF911F910F9159
:102CB000FF90EF9008958881EDCF81E0F5CF0F93DD
:102CC0001F93CF93DF938C0181E090E00E944F101F
:102CD00080FF32C08AE090E00E944F109FEF980F73
:102CE0009E3F50F522E330E0D80150963C932E935E
:102CF0001F9728E330E052963C932E935197CBE0F8
:102D0000D0E0D801ED91FC910190F081E02D682F89
:102D1000C8010995CE010E944F102196C131D105FD
:102D200081F780E00E94930888EE93E0DF91CF91D5
:102D30001F910F910C94070CDF91CF911F910F9170
:102D4000089504970C945F16E1E4F6E01382128272
:102D500088EE93E0A0E0B0E084839583A683B783F8
:102D60008AE991E0918380838FEF9FEF9587848735
:102D7000E9EAF6E0138212821186128680E18387E7
:102D80001086178215868CEA91E0918380838AEB06
:102D900091E095838483108A1786128A118A81E0D4
:102DA000838B148A858B168A8FEB97E09093A0060D
:102DB00080939F0680E090E890939E0680939D0606
:102DC00046983E9A47983F9AE1EAF6E011821082CF
:102DD0001382128215821482178216820895CF936D
:102DE000DF93CDB7DEB72C970FB6F894DEBF0FBEDA
:102DF000CDBF789484B5826084BD84B5816084BD84
:102E000085B5826085BD85B5816085BD80916E0088
:102E1000816080936E0010928100809181008260B9
:102E200080938100809181008160809381008091F6
:102E30008000816080938000809191008260809307
:102E40009100809191008160809391008091900029
:102E50008160809390008091C10084608093C10064
:102E60008091C10082608093C1008091C100816027
:102E70008093C1008091C30081608093C3008091E2
:102E8000C00082608093C0008091C2008160809306
:102E9000C20080917A00846080937A0080917A00E9
:102EA000826080937A0080917A00816080937A00BA
:102EB00080917A00806880937A001092400210928C
:102EC0002302109222028091D70081608093D70064
:102ED00080EA8093D80089B5806189BD89B5826018
:102EE00089BD09B400FEFDCF61E070E080E090E0B4
:102EF0000E94690A8091D8008F7C80618093D800FD
:102F00008091E000807F8093E0008091E1008E7EE0
:102F10008093E1008DE08093E200559A209A8FEF34
:102F20009FEF90934E0680934D0681EC80937C003A
:102F300085B1806F85B984B1877E84B984B1876E8D
:102F400084B95E9A5F988AB1806D8AB9769A6E98D4
:102F500081B3806F81BB899880B38D7080BB80E521
:102F60008CBD81E08DBD85E090E00E94070C5F9AEA
:102F700085E090E00E94070C5E985C98E9EFF6E02F
:102F800086E097E024912EBD00000DB407FEFDCF32
:102F900031968E179F07B1F75C9A81E880936400A1
:102FA0008091650081608093650080E00E949308B5
:102FB0000E940C0C87FF15C05C9885EA8EBD00004E
:102FC0000DB407FEFDCF5C9A2E982F982D98809116
:102FD000640080628093640081E083BF889513BEA3
:102FE000FCCF0E940C0C82FF48C02D980E940C0C54
:102FF00084788438E1F40E94050C88EC90E00E940B
:10300000070C2F9882E090E00E94761E8F3F29F0F7
:103010006FEF82E090E00E947E1E84EF91E00E94BC
:10302000070C2F9A0E940C0C84788438D9F30E94E4
:103030000C0C84718431E1F40E94050C88EC90E062
:103040000E94070C2E9882E090E00E94761E882352
:1030500029F060E082E090E00E947E1E84EF91E023
:103060000E94070C2E9A0E940C0C84718431D9F3B3
:1030700088EC90E00E94070CB4CF0E94050C82E01F
:1030800090E00E944F10882309F476C03E9A3F9A40
:1030900081E08093240281E090E00E944F10482F4D
:1030A0004470542E81FF12C041112E9800EF1FEF83
:1030B00068E0A62EB12C7CE6E72EF12C0E940C0CC9
:1030C00086FF5FC02E9A2F9A0E94050C82E390E043
:1030D0000E94070C0E940C0C8111F8CF84E18093B0
:1030E000B40600912D0210912E020F5F1F4F109316
:1030F0002E0200932D0280E190E00E94AD1CFC01A5
:1031000080E591E09183808380E490E095838483DF
:1031100088E390E0978386838AE590E091878087B3
:1031200013861286158614861786168613830283E5
:10313000F0932C02E0932B02BF0181EA96E00E94FB
:103140002310AE014F5F5F4F1A010E94210B809147
:10315000B506562F581B852F9091B606992309F472
:10316000AFC05093B7061092B60680E090E0892B6E
:1031700061F30E940000E9CF109224023E983F982C
:103180008ACF552029F00430110511F42E9A2F987A
:1031900081E00E949308980117FF04C0222733277B
:1031A000201B310B27703327C80117FD079653E00A
:1031B000959587955A95E1F717FF05C00197D501B9
:1031C000A21BB30B9D01BC017695762F66277795E0
:1031D00067956F5B7D4FB0E0A0E01501221A330ABE
:1031E0008F3FEFEF9E070CF446C048E550E0FD012D
:1031F000EF55F94F4F013B01F0E86F0E711C8F3F07
:103200009807C9F0F401E41BF50B44906701C41A58
:10321000D50AC60ED71EE42DF0E0022E02C0EE0F36
:10322000FF1F0A94E2F7FA87E987F6014080F985E3
:103230004F2AF601408221153105C9F0F401E41B43
:10324000F50B44906701C41AD50AC60CD71CE42DAF
:10325000F0E0022C02C0F595E7950A94E2F7FA87B0
:10326000E987F6014080F9854F2AF60140824150F6
:10327000510909F0C4CF0196A85ABF4F60587F4F3B
:10328000A03BB10509F0ACCF80E00E9493088FE02D
:1032900090E00E94070C0F5F1F4F0931110509F0E4
:1032A0000DCF552011F02F9A2D9880E991E00E94C2
:1032B000070C0E94050C89EA96E00E945F1606CF73
:1032C0009091B406591748F48F5F891708F04DCFD5
:1032D00081E083BF889513BE48CF81E08093B60616
:1032E0006093B5068091B0069091B10601969093D7
:1032F000B1068093B0060E94A20880910C01882339
:1033000041F142E257E070E060E090E080E00E942E
:10331000C2071092B9061092B8061092BB0610921E
:10332000BA068CEB91E00E946D0F87EC91E00E9451
:103330006D0F80E00E9493080E940C0C83FD07C073
:1033400064E670E080E090E00E94690AF5CF109298
:103350000C0144E25BE070E060E090E080E00E94FD
:10336000C2078EE690E09093B9068093B80610925B
:10337000BB061092BA0680913102909132020E94EF
:103380003D0F8091A3069091A4069093A806809388
:10339000A7068091A1069091A206892B09F448C046
:1033A000E091A706F091A80600811181D801ED9166
:1033B000FC910680F781E02DC8010995811119C0A3
:1033C0000E94210B6B017C01D801ED91FC910084DE
:1033D000F185E02DC80109956C157D058E059F05C9
:1033E00040F4D801ED91FC910480F581E02DC801F5
:1033F0000995D801ED91FC910680F781E02DC80177
:103400000995882309F40CC181EA96E00E94D00D49
:103410008111F6C0C8010E94D40F0115110541F0B9
:10342000D801ED91FC910484F585E02DC801099542
:10343000809131029091320261E070E08630910516
:1034400034F065E070E00E944B216F5F7F4F809108
:103450002F0290913002861797070CF0A7C0209199
:10346000C0063091C106F101E21BF30BE536F10510
:103470000CF49CC001969093300280932F020E941E
:103480001E1E2B013C010E941E1E69877A878B87B6
:103490009C870E941E1E4B015C01C0902D02D090A3
:1034A0002E02FFEFCF1ADF0AD0922E02C0922D0219
:1034B00080E290E00E94AD1C8C0182E691E0D80190
:1034C00011969C938E9319961C921E9218971B9698
:1034D0001C921E921A97FF24F3941E96FC92F801F8
:1034E0001786108A118A128AC301B2012EE630E0D3
:1034F00040E050E00E948C1E665F7F4F8F4F9F4FD1
:10350000D80115967C936E93149769857A858B857F
:103510009C852AE030E040E050E00E948C1E665F0F
:103520007F4F8F4F9F4FF80177836683C501B401AA
:1035300028E631E040E050E00E948C1ED8011D9644
:103540007C936E931C971396DC92CE92129788E828
:1035500093E1A0E0B0E0F801838B948BA58BB68B50
:1035600083E090E0A0E0B0E0878B908FA18FB28FD6
:1035700088E197E0948F838F0E94210BD8011F96DA
:103580006D937D938D939C9352978EE791E0119666
:103590009C938E935D96FC925D975F961C921E9213
:1035A0005E97B80181EA96E00E9423101A82198280
:1035B0001C821B821E821D8218861F828091A30698
:1035C0009091A4069093A8068093A7068091A106E7
:1035D0009091A206892B81F1E091A706F091A806AF
:1035E00060817181C1010E94231081EA96E00E94EE
:1035F000D00D882309F181EA96E00E94BE0DECCF40
:10360000C8010E94D40F0115110509F4C9CED801D3
:10361000ED91FC910484F585E02DC8010995C0CE9B
:1036200081EA96E00E94D00D882309F401CF81EA57
:1036300096E00E94BE0DB4CE8B819C8198878F83CB
:1036400089819A81892B09F474C199249394EF811B
:10365000F88500811181D801ED91FC910280F38100
:10366000E02DC8010995049709F090C0F801C680C3
:10367000D780A480B5808091A3069091A4069093F2
:10368000A8068093A7068091A1069091A206892B97
:1036900009F47CC0E091A706F091A806E080F180D3
:1036A000D701ED91FC910280F381E02DC7010995CE
:1036B000039789F5F7018681978124813581A216C8
:1036C000B3064CF1285F3F4FA216B30624F5C81687
:1036D000D9060CF10896C816D906ECF464EF71E02F
:1036E0008CE291E00E94E90BD7015D961C928091DB
:1036F0002F029091300201979093300280932F0215
:10370000F801958E8091310290913202019690934A
:10371000320280933102D701ED91FC910280F38156
:10372000E02DC7010995029731F5F7018681978150
:1037300024813581A216B306F4F0285F3F4FA2160C
:10374000B306CCF4C816D906B4F00896C816D90644
:1037500094F4D8015D969C9280913102909132024E
:103760000297909332028093310264E670E088E819
:1037700093E10E94E90B81EA96E00E94D00D882334
:1037800029F081EA96E00E94BE0D84CFD801ED9128
:10379000FC910280F381E02DC8010995039709F09F
:1037A000CFC0F8014681578164817581E0912B0279
:1037B000F0912C028681978124813581FB01389616
:1037C0002E173F070CF0BCC0285F3F4F62177307EE
:1037D0000CF0B6C09A01285F3F4F821793070CF098
:1037E000AFC00896481759070CF0AAC0E091A3068D
:1037F000F091A406F093A806E093A7068091A10695
:103800009091A206892B71F080819181009739F007
:10381000DC01ED91FC910484F585E02D09950E9471
:103820007A0FE4CF0E94A2081092B9061092B8064F
:10383000EEE1F0E0F093BB06E093BA0683ED91E091
:103840000E946D0F8AEE91E00E946D0F809131020F
:10385000909132020E943D0F85EC91E00E946D0F25
:103860008AEF91E00E946D0F1092300210922F02A9
:10387000109232021092310210922A0280E00E94CD
:103880009308809171008D7F8093710081E0809317
:10389000290246E057E050932802409327025093B4
:1038A0002602409325020E94410B00912D021091A7
:1038B0002E020F5F1F4F10932E0200932D0280E106
:1038C00090E00E94AD1CFC0180E591E09183808333
:1038D000A0E4B0E0B583A48348E350E05783468377
:1038E0008AE590E091878087138612861586148674
:1038F0001786168613830283F0932C02E0932B0223
:10390000BF0181EA96E00E9423100E940C0C83FD07
:1039100007C064E670E080E090E00E94690AF5CF9D
:1039200081E080930C0164EF71E080E090E00E9400
:10393000690AC1010E94FD0F80E00E94930815CC26
:10394000C1010E94D00D8823A1F3C1010E94BE0DC8
:103950007ECE81EA96E00C94FD0F0F931F93CF93D8
:10396000DF938230910510F482E090E0E091C2068E
:10397000F091C30630E020E0B0E0A0E0309799F489
:103980002115310509F44AC0281B390B24303105B3
:10399000D8F58A819B816115710589F1FB019383BB
:1039A0008283FE0111C04081518102811381481739
:1039B0005907E0F04817590799F4109761F01296EB
:1039C0000C93129713961C933296CF01DF91CF91EF
:1039D0001F910F9108950093C2061093C306F4CF70
:1039E0002115310551F04217530738F0A901DB01C9
:1039F0009A01BD01DF01F801C1CFEF01F9CF90932A
:103A0000C3068093C206CDCFFE01E20FF31F819360
:103A100091932250310939832883D7CF2091C00652
:103A20003091C106232B41F420910F0130911001F8
:103A30003093C1062093C00620910D0130910E01F4
:103A40002115310541F42DB73EB740911101509138
:103A50001201241B350BE091C006F091C106E2175C
:103A6000F307A0F42E1B3F0B2817390778F0AC01A1
:103A70004E5F5F4F2417350748F04E0F5F1F50937E
:103A8000C1064093C006819391939FCFF0E0E0E0A0
:103A90009CCFCF93DF930097E9F0FC01329713821C
:103AA0001282A091C206B091C306ED0130E020E081
:103AB0001097A1F420813181820F931F2091C006BD
:103AC0003091C1062817390709F061C0F093C1068B
:103AD000E093C006DF91CF910895EA01CE17DF078A
:103AE000E8F54A815B819E0141155105B1F7E90175
:103AF000FB83EA8349915991C40FD51FEC17FD0749
:103B000061F4808191810296840F951FE901998368
:103B10008883828193819B838A83F0E0E0E0129620
:103B20008D919C9113970097B9F52D913C91119728
:103B3000CD010296820F931F2091C0063091C106DD
:103B40002817390739F6309751F51092C3061092AD
:103B5000C206B093C106A093C006BCCFD383C28374
:103B600040815181840F951FC817D90761F44E5FBA
:103B70005F4F88819981480F591F518340838A8103
:103B80009B81938382832115310509F0B0CFF09397
:103B9000C306E093C2069ECFFD01DC01C0CF1382B5
:103BA0001282D7CF8F929F92AF92BF92CF92DF9225
:103BB000EF92FF92CF93DF93EC01688179818A8144
:103BC0009B81611571058105910521F464E279ED10
:103BD0008BE597E02DE133EF41E050E00E948C1E31
:103BE00049015A019B01AC01A7EAB1E40E94AB1E56
:103BF0006B017C01ACEEB4EFA50194010E94B91EEB
:103C0000C60ED71EE81EF91EF7FE06C081E0C81AD0
:103C1000D108E10880E8F80AC882D982EA82FB82EA
:103C2000C701B6019F77DF91CF91FF90EF90DF90B2
:103C3000CF90BF90AF909F908F9008958F929F925A
:103C4000AF92BF92CF92DF92EF92FF9260911301F9
:103C50007091140180911501909116016115710503
:103C60008105910521F464E279ED8BE597E02DE182
:103C700033EF41E050E00E948C1E49015A019B0144
:103C8000AC01A7EAB1E40E94AB1E6B017C01ACEE73
:103C9000B4EFA50194010E94B91EC60ED71EE81EFE
:103CA000F91EF7FE06C081E0C81AD108E10880E8D5
:103CB000F80AC0921301D0921401E0921501F0921B
:103CC0001601C701B6019F77FF90EF90DF90CF906C
:103CD000BF90AF909F908F90089560931301709361
:103CE000140180931501909316010895F999FECF60
:103CF00092BD81BDF89A992780B50895262FF9992C
:103D0000FECF1FBA92BD81BD20BD0FB6F894FA9ABE
:103D1000F99A0FBE01960895052E97FB1EF40094A4
:103D20000E94A31E57FD07D00E94BE1E07FC03D0B1
:103D30004EF40C94A31E50954095309521953F4F1D
:103D40004F4F5F4F089590958095709561957F4F87
:103D50008F4F9F4F08950E94E01EA59F900DB49F26
:103D6000900DA49F800D911D11240895B7FF0C9410
:103D7000AB1E0E94AB1E821B930B0895A1E21A2E6C
:103D8000AA1BBB1BFD010DC0AA1FBB1FEE1FFF1FFF
:103D9000A217B307E407F50720F0A21BB30BE40B4F
:103DA000F50B661F771F881F991F1A9469F7609596
:103DB0007095809590959B01AC01BD01CF01089550
:103DC000A29FB001B39FC001A39F700D811D11245C
:103DD000911DB29F700D811D1124911D08955058A1
:103DE000BB27AA270E94071F0C9416200E94DD1FE4
:103DF00038F00E94E41F20F039F49F3F19F426F4B4
:103E00000C94DA1F0EF4E095E7FB0C94D41FE92F15
:103E10000E943B2058F3BA1762077307840795077F
:103E200020F079F4A6F50C945D200EF4E0950B2EAD
:103E3000BA2FA02D0B01B90190010C01CA01A001FC
:103E40001124FF27591B99F0593F50F4503E68F157
:103E50001A16F040A22F232F342F4427585FF3CF98
:103E6000469537952795A795F0405395C9F77EF469
:103E70001F16BA0B620B730B840BBAF09150A1F0B2
:103E8000FF0FBB1F661F771F881FC2F70EC0BA0F38
:103E9000621F731F841F48F4879577956795B795C0
:103EA000F7959E3F08F0B0CF9395880F08F09927BB
:103EB000EE0F9795879508950E94ED1FE3950C945A
:103EC00027200E94681F6894B1110C945E20089509
:103ED0000E94432088F09F5798F0B92F9927B75137
:103EE000B0F0E1F0660F771F881F991F1AF0BA959E
:103EF000C9F714C0B13091F00E945D20B1E008957F
:103F00000C945D20672F782F8827B85F39F0B93F70
:103F1000CCF3869577956795B395D9F73EF4909550
:103F20008095709561957F4F8F4F9F4F0895E894CE
:103F300009C097FB3EF490958095709561957F4FF1
:103F40008F4F9F4F9923A9F0F92F96E9BB2793959F
:103F5000F695879577956795B795F111F8CFFAF4AF
:103F6000BB0F11F460FF1BC06F5F7F4F8F4F9F4FE0
:103F700016C0882311F096E911C0772321F09EE83E
:103F8000872F762F05C0662371F096E8862F70E0A4
:103F900060E02AF09A95660F771F881FDAF7880F7E
:103FA0009695879597F9089597F99F6780E870E04F
:103FB00060E008959FEF80EC089500240A9416169F
:103FC000170618060906089500240A941216130607
:103FD0001406050608950C94DA1F0E944320D8F3B6
:103FE000E894E0E0BB279F57F0F02AED3FE049EC72
:103FF00006C0EE0FBB0F661F771F881F28F0B23A6E
:1040000062077307840728F0B25A620B730B840BA4
:10401000E3959A9572F7803830F49A95BB0F661F36
:10402000771F881FD2F790480C940421092E03941F
:10403000000C11F4882352F0BB0F40F4BF2B11F495
:1040400060FF04C06F5F7F4F8F4F9F4F0895EF93C6
:10405000E0FF07C0A2EA2AED3FE049EC5FEB0E94D7
:10406000071F0E9416200F90039401FC9058ECEA61
:10407000F0E00C94102157FD9058440F551F59F053
:104080005F3F71F04795880F97FB991F61F09F3F45
:1040900079F087950895121613061406551FF2CF6E
:1040A0004695F1DF08C0161617061806991FF1CFBE
:1040B00086957105610508940895E894BB276627E5
:1040C0007727CB0197F908950E94DE2008F48FEF3F
:1040D00008950E947C200C9416200E94DD1F38F069
:1040E0000E94E41F20F0952311F00C94D41F0C942F
:1040F000DA1F11240C945E200E943B2070F3959FE0
:10410000C1F3950F50E0551F629FF001729FBB27CE
:10411000F00DB11D639FAA27F00DB11DAA1F649F6A
:104120006627B00DA11D661F829F2227B00DA11D1D
:10413000621F739FB00DA11D621F839FA00D611DA3
:10414000221F749F3327A00D611D231F849F600DC4
:10415000211D822F762F6A2F11249F5750409AF0ED
:10416000F1F088234AF0EE0FFF1FBB1F661F771F79
:10417000881F91505040A9F79E3F510580F00C9444
:10418000D41F0C945E205F3FE4F3983ED4F38695F1
:1041900077956795B795F795E7959F5FC1F7FE2BE4
:1041A000880F911D9695879597F908959F930E9482
:1041B000ED1F0F9007FCEE5F0C942720990F00086D
:1041C000550FAA0BE0E8FEEF16161706E807F907E9
:1041D000C0F012161306E407F50798F0621B730B84
:1041E000840B950B39F40A2661F0232B242B252B05
:1041F00021F408950A2609F4A140A6958FEF811DA8
:10420000811D08959F3F31F0915020F48795779557
:104210006795B795880F911D9695879597F908959D
:104220009F938F937F936F93FF93EF939B01AC01C9
:104230000E946920EF91FF910E9424212F913F91CC
:104240004F915F910C946920DF93CF931F930F934D
:10425000FF92EF92DF927B018C01689406C0DA2E08
:10426000EF010E947C20FE01E894A59125913591F3
:1042700045915591A6F3EF010E94071FFE0197019A
:10428000A801DA9469F7DF90EF90FF900F911F91EA
:10429000CF91DF91089597FB072E16F4009407D075
:1042A00077FD09D00E945F2107FC05D03EF4909570
:1042B00081959F4F0895709561957F4F0895AA1B32
:1042C000BB1B51E107C0AA1FBB1FA617B70710F001
:1042D000A61BB70B881F991F5A95A9F78095909533
:1042E000BC01CD010895EE0FFF1F0590F491E02D64
:1042F000099481E090E0F8940C947E2117E0C4E9E1
:10430000D7E004C0FE010E9473212196C539D10770
:06431000C9F7F894FFCF8D
:10431600FFFFFFFF00E1000000000000010000C4F5
:104326000680000100000000000000630E3C0EB98C
:104336000D3F0E2A0E290E1D1000000000C20E6849
:104346000EA20E9A0EE40D670E1F10DD0ECF0EECB8
:10435600116B0E770E00C180810000000000000086
:10436600EA0DE10D5310E80DE40DE00D1B10000001
:104376000000C20EEC0EA20E780EE40D760E211091
:10438600DD0ECF0EEC11C60E770E00000000C20E39
:10439600260EA90EEE0DE40DBD0DFB0FDD0ECF0EA4
:1043A600EC11C60E770E00000000C3099C0AE40952
:1043B600D9092A0AE809060A00000000B60C96097F
:1043C600BA0DB90D5F16FCFF0000A1167072657379
:1043D60073205B415D0A0055702F44776E2061693A
:1043E6006D0A005B5B2047414D45204F56455220E4
:1043F600434841544F215D5D0A0020202066696EC6
:10440600616C2073636F72652000202020202020BD
:0A4416007072657373205B415D0056
:00000001FF
